{
  "_format": "hh-sol-artifact-1",
  "contractName": "NftMarketplace",
  "sourceName": "contracts/NftMarketplace.sol",
  "abi": [
    {
      "inputs": [],
      "stateMutability": "nonpayable",
      "type": "constructor"
    },
    {
      "anonymous": false,
      "inputs": [
        {
          "indexed": true,
          "internalType": "address",
          "name": "owner",
          "type": "address"
        },
        {
          "indexed": true,
          "internalType": "address",
          "name": "approved",
          "type": "address"
        },
        {
          "indexed": true,
          "internalType": "uint256",
          "name": "tokenId",
          "type": "uint256"
        }
      ],
      "name": "Approval",
      "type": "event"
    },
    {
      "anonymous": false,
      "inputs": [
        {
          "indexed": true,
          "internalType": "address",
          "name": "owner",
          "type": "address"
        },
        {
          "indexed": true,
          "internalType": "address",
          "name": "operator",
          "type": "address"
        },
        {
          "indexed": false,
          "internalType": "bool",
          "name": "approved",
          "type": "bool"
        }
      ],
      "name": "ApprovalForAll",
      "type": "event"
    },
    {
      "anonymous": false,
      "inputs": [
        {
          "indexed": true,
          "internalType": "uint256",
          "name": "tokenId",
          "type": "uint256"
        },
        {
          "indexed": false,
          "internalType": "address payable",
          "name": "seller",
          "type": "address"
        },
        {
          "indexed": false,
          "internalType": "address payable",
          "name": "owner",
          "type": "address"
        },
        {
          "indexed": false,
          "internalType": "uint256",
          "name": "price",
          "type": "uint256"
        },
        {
          "indexed": false,
          "internalType": "address[]",
          "name": "subscribers",
          "type": "address[]"
        },
        {
          "indexed": false,
          "internalType": "uint256",
          "name": "likes",
          "type": "uint256"
        },
        {
          "indexed": false,
          "internalType": "string",
          "name": "title",
          "type": "string"
        },
        {
          "indexed": false,
          "internalType": "string",
          "name": "description",
          "type": "string"
        }
      ],
      "name": "NftStructCreated",
      "type": "event"
    },
    {
      "anonymous": false,
      "inputs": [
        {
          "indexed": true,
          "internalType": "uint256",
          "name": "tokenId",
          "type": "uint256"
        },
        {
          "indexed": false,
          "internalType": "uint64",
          "name": "expiration",
          "type": "uint64"
        }
      ],
      "name": "SubscriptionUpdate",
      "type": "event"
    },
    {
      "anonymous": false,
      "inputs": [
        {
          "indexed": true,
          "internalType": "address",
          "name": "from",
          "type": "address"
        },
        {
          "indexed": true,
          "internalType": "address",
          "name": "to",
          "type": "address"
        },
        {
          "indexed": true,
          "internalType": "uint256",
          "name": "tokenId",
          "type": "uint256"
        }
      ],
      "name": "Transfer",
      "type": "event"
    },
    {
      "inputs": [],
      "name": "addProfile",
      "outputs": [],
      "stateMutability": "nonpayable",
      "type": "function"
    },
    {
      "inputs": [
        {
          "internalType": "address",
          "name": "to",
          "type": "address"
        },
        {
          "internalType": "uint256",
          "name": "tokenId",
          "type": "uint256"
        }
      ],
      "name": "approve",
      "outputs": [],
      "stateMutability": "nonpayable",
      "type": "function"
    },
    {
      "inputs": [
        {
          "internalType": "address",
          "name": "owner",
          "type": "address"
        }
      ],
      "name": "balanceOf",
      "outputs": [
        {
          "internalType": "uint256",
          "name": "",
          "type": "uint256"
        }
      ],
      "stateMutability": "view",
      "type": "function"
    },
    {
      "inputs": [
        {
          "internalType": "uint256",
          "name": "_tokenId",
          "type": "uint256"
        }
      ],
      "name": "buySubscription",
      "outputs": [
        {
          "internalType": "bool",
          "name": "",
          "type": "bool"
        }
      ],
      "stateMutability": "payable",
      "type": "function"
    },
    {
      "inputs": [
        {
          "internalType": "uint256",
          "name": "_tokenId",
          "type": "uint256"
        }
      ],
      "name": "cancelSubscription",
      "outputs": [],
      "stateMutability": "payable",
      "type": "function"
    },
    {
      "inputs": [
        {
          "internalType": "string",
          "name": "_tokenURI",
          "type": "string"
        },
        {
          "internalType": "string",
          "name": "_title",
          "type": "string"
        },
        {
          "internalType": "string",
          "name": "_description",
          "type": "string"
        }
      ],
      "name": "createNft",
      "outputs": [],
      "stateMutability": "nonpayable",
      "type": "function"
    },
    {
      "inputs": [
        {
          "internalType": "uint256",
          "name": "_tokenId",
          "type": "uint256"
        }
      ],
      "name": "expiresAt",
      "outputs": [
        {
          "internalType": "uint64",
          "name": "",
          "type": "uint64"
        }
      ],
      "stateMutability": "view",
      "type": "function"
    },
    {
      "inputs": [
        {
          "internalType": "address",
          "name": "_account",
          "type": "address"
        }
      ],
      "name": "followProfile",
      "outputs": [],
      "stateMutability": "nonpayable",
      "type": "function"
    },
    {
      "inputs": [
        {
          "internalType": "uint256",
          "name": "tokenId",
          "type": "uint256"
        }
      ],
      "name": "getApproved",
      "outputs": [
        {
          "internalType": "address",
          "name": "",
          "type": "address"
        }
      ],
      "stateMutability": "view",
      "type": "function"
    },
    {
      "inputs": [],
      "name": "getCollectables",
      "outputs": [
        {
          "components": [
            {
              "internalType": "uint256",
              "name": "tokenId",
              "type": "uint256"
            },
            {
              "internalType": "address payable",
              "name": "seller",
              "type": "address"
            },
            {
              "internalType": "address payable",
              "name": "owner",
              "type": "address"
            },
            {
              "internalType": "uint256",
              "name": "price",
              "type": "uint256"
            },
            {
              "internalType": "address[]",
              "name": "subscribers",
              "type": "address[]"
            },
            {
              "internalType": "uint256",
              "name": "likes",
              "type": "uint256"
            },
            {
              "internalType": "string",
              "name": "title",
              "type": "string"
            },
            {
              "internalType": "string",
              "name": "description",
              "type": "string"
            },
            {
              "internalType": "string",
              "name": "tokenUri",
              "type": "string"
            }
          ],
          "internalType": "struct NftMarketplace.nftStruct[]",
          "name": "",
          "type": "tuple[]"
        }
      ],
      "stateMutability": "view",
      "type": "function"
    },
    {
      "inputs": [
        {
          "internalType": "uint256",
          "name": "_tokenId",
          "type": "uint256"
        }
      ],
      "name": "getIndividualNFT",
      "outputs": [
        {
          "components": [
            {
              "internalType": "uint256",
              "name": "tokenId",
              "type": "uint256"
            },
            {
              "internalType": "address payable",
              "name": "seller",
              "type": "address"
            },
            {
              "internalType": "address payable",
              "name": "owner",
              "type": "address"
            },
            {
              "internalType": "uint256",
              "name": "price",
              "type": "uint256"
            },
            {
              "internalType": "address[]",
              "name": "subscribers",
              "type": "address[]"
            },
            {
              "internalType": "uint256",
              "name": "likes",
              "type": "uint256"
            },
            {
              "internalType": "string",
              "name": "title",
              "type": "string"
            },
            {
              "internalType": "string",
              "name": "description",
              "type": "string"
            },
            {
              "internalType": "string",
              "name": "tokenUri",
              "type": "string"
            }
          ],
          "internalType": "struct NftMarketplace.nftStruct",
          "name": "",
          "type": "tuple"
        }
      ],
      "stateMutability": "view",
      "type": "function"
    },
    {
      "inputs": [],
      "name": "getNfts",
      "outputs": [
        {
          "components": [
            {
              "internalType": "uint256",
              "name": "tokenId",
              "type": "uint256"
            },
            {
              "internalType": "address payable",
              "name": "seller",
              "type": "address"
            },
            {
              "internalType": "address payable",
              "name": "owner",
              "type": "address"
            },
            {
              "internalType": "uint256",
              "name": "price",
              "type": "uint256"
            },
            {
              "internalType": "address[]",
              "name": "subscribers",
              "type": "address[]"
            },
            {
              "internalType": "uint256",
              "name": "likes",
              "type": "uint256"
            },
            {
              "internalType": "string",
              "name": "title",
              "type": "string"
            },
            {
              "internalType": "string",
              "name": "description",
              "type": "string"
            },
            {
              "internalType": "string",
              "name": "tokenUri",
              "type": "string"
            }
          ],
          "internalType": "struct NftMarketplace.nftStruct[]",
          "name": "",
          "type": "tuple[]"
        }
      ],
      "stateMutability": "view",
      "type": "function"
    },
    {
      "inputs": [],
      "name": "getNumberOfUsers",
      "outputs": [
        {
          "internalType": "uint256",
          "name": "",
          "type": "uint256"
        }
      ],
      "stateMutability": "view",
      "type": "function"
    },
    {
      "inputs": [],
      "name": "getSubscriptions",
      "outputs": [
        {
          "components": [
            {
              "internalType": "uint256",
              "name": "tokenId",
              "type": "uint256"
            },
            {
              "internalType": "address payable",
              "name": "seller",
              "type": "address"
            },
            {
              "internalType": "address payable",
              "name": "owner",
              "type": "address"
            },
            {
              "internalType": "uint256",
              "name": "price",
              "type": "uint256"
            },
            {
              "internalType": "address[]",
              "name": "subscribers",
              "type": "address[]"
            },
            {
              "internalType": "uint256",
              "name": "likes",
              "type": "uint256"
            },
            {
              "internalType": "string",
              "name": "title",
              "type": "string"
            },
            {
              "internalType": "string",
              "name": "description",
              "type": "string"
            },
            {
              "internalType": "string",
              "name": "tokenUri",
              "type": "string"
            }
          ],
          "internalType": "struct NftMarketplace.nftStruct[]",
          "name": "",
          "type": "tuple[]"
        }
      ],
      "stateMutability": "view",
      "type": "function"
    },
    {
      "inputs": [
        {
          "internalType": "address",
          "name": "owner",
          "type": "address"
        },
        {
          "internalType": "address",
          "name": "operator",
          "type": "address"
        }
      ],
      "name": "isApprovedForAll",
      "outputs": [
        {
          "internalType": "bool",
          "name": "",
          "type": "bool"
        }
      ],
      "stateMutability": "view",
      "type": "function"
    },
    {
      "inputs": [
        {
          "internalType": "uint256",
          "name": "tokenId",
          "type": "uint256"
        }
      ],
      "name": "isRenewable",
      "outputs": [
        {
          "internalType": "bool",
          "name": "",
          "type": "bool"
        }
      ],
      "stateMutability": "pure",
      "type": "function"
    },
    {
      "inputs": [
        {
          "internalType": "uint256",
          "name": "_tokenId",
          "type": "uint256"
        }
      ],
      "name": "likeSubscription",
      "outputs": [],
      "stateMutability": "nonpayable",
      "type": "function"
    },
    {
      "inputs": [],
      "name": "name",
      "outputs": [
        {
          "internalType": "string",
          "name": "",
          "type": "string"
        }
      ],
      "stateMutability": "view",
      "type": "function"
    },
    {
      "inputs": [
        {
          "internalType": "uint256",
          "name": "tokenId",
          "type": "uint256"
        }
      ],
      "name": "ownerOf",
      "outputs": [
        {
          "internalType": "address",
          "name": "",
          "type": "address"
        }
      ],
      "stateMutability": "view",
      "type": "function"
    },
    {
      "inputs": [
        {
          "internalType": "uint256",
          "name": "",
          "type": "uint256"
        }
      ],
      "name": "profiles",
      "outputs": [
        {
          "internalType": "address",
          "name": "self",
          "type": "address"
        }
      ],
      "stateMutability": "view",
      "type": "function"
    },
    {
      "inputs": [
        {
          "internalType": "uint256",
          "name": "_tokenId",
          "type": "uint256"
        },
        {
          "internalType": "uint64",
          "name": "duration",
          "type": "uint64"
        }
      ],
      "name": "renewSubscription",
      "outputs": [],
      "stateMutability": "payable",
      "type": "function"
    },
    {
      "inputs": [
        {
          "internalType": "address",
          "name": "from",
          "type": "address"
        },
        {
          "internalType": "address",
          "name": "to",
          "type": "address"
        },
        {
          "internalType": "uint256",
          "name": "tokenId",
          "type": "uint256"
        }
      ],
      "name": "safeTransferFrom",
      "outputs": [],
      "stateMutability": "nonpayable",
      "type": "function"
    },
    {
      "inputs": [
        {
          "internalType": "address",
          "name": "from",
          "type": "address"
        },
        {
          "internalType": "address",
          "name": "to",
          "type": "address"
        },
        {
          "internalType": "uint256",
          "name": "tokenId",
          "type": "uint256"
        },
        {
          "internalType": "bytes",
          "name": "data",
          "type": "bytes"
        }
      ],
      "name": "safeTransferFrom",
      "outputs": [],
      "stateMutability": "nonpayable",
      "type": "function"
    },
    {
      "inputs": [
        {
          "internalType": "uint256",
          "name": "_tokenId",
          "type": "uint256"
        },
        {
          "internalType": "uint64",
          "name": "duration",
          "type": "uint64"
        }
      ],
      "name": "sellSubscription",
      "outputs": [
        {
          "internalType": "uint256",
          "name": "",
          "type": "uint256"
        }
      ],
      "stateMutability": "payable",
      "type": "function"
    },
    {
      "inputs": [
        {
          "internalType": "address",
          "name": "operator",
          "type": "address"
        },
        {
          "internalType": "bool",
          "name": "approved",
          "type": "bool"
        }
      ],
      "name": "setApprovalForAll",
      "outputs": [],
      "stateMutability": "nonpayable",
      "type": "function"
    },
    {
      "inputs": [
        {
          "internalType": "bytes4",
          "name": "interfaceId",
          "type": "bytes4"
        }
      ],
      "name": "supportsInterface",
      "outputs": [
        {
          "internalType": "bool",
          "name": "",
          "type": "bool"
        }
      ],
      "stateMutability": "view",
      "type": "function"
    },
    {
      "inputs": [],
      "name": "symbol",
      "outputs": [
        {
          "internalType": "string",
          "name": "",
          "type": "string"
        }
      ],
      "stateMutability": "view",
      "type": "function"
    },
    {
      "inputs": [
        {
          "internalType": "uint256",
          "name": "tokenId",
          "type": "uint256"
        }
      ],
      "name": "tokenURI",
      "outputs": [
        {
          "internalType": "string",
          "name": "",
          "type": "string"
        }
      ],
      "stateMutability": "view",
      "type": "function"
    },
    {
      "inputs": [
        {
          "internalType": "address",
          "name": "from",
          "type": "address"
        },
        {
          "internalType": "address",
          "name": "to",
          "type": "address"
        },
        {
          "internalType": "uint256",
          "name": "tokenId",
          "type": "uint256"
        }
      ],
      "name": "transferFrom",
      "outputs": [],
      "stateMutability": "nonpayable",
      "type": "function"
    },
    {
      "inputs": [
        {
          "internalType": "address",
          "name": "_account",
          "type": "address"
        }
      ],
      "name": "unfollowProfile",
      "outputs": [],
      "stateMutability": "view",
      "type": "function"
    },
    {
      "inputs": [
        {
          "internalType": "uint256",
          "name": "_tokenId",
          "type": "uint256"
        }
      ],
      "name": "unlikeSubscription",
      "outputs": [],
      "stateMutability": "nonpayable",
      "type": "function"
    }
  ],
  "bytecode": "0x60806040523480156200001157600080fd5b506040518060400160405280601981526020017f4e4654204d6167617a696e6520537562736372697074696f6e000000000000008152506040518060400160405280600381526020017f4d41470000000000000000000000000000000000000000000000000000000000815250620000956001620000ef60201b620029e31760201c565b8160039081620000a691906200037f565b508060049081620000b891906200037f565b505050620000d2600a620000ef60201b620029e31760201c565b620000e9600c620000ef60201b620029e31760201c565b62000466565b6001816000016000828254019250508190555050565b600081519050919050565b7f4e487b7100000000000000000000000000000000000000000000000000000000600052604160045260246000fd5b7f4e487b7100000000000000000000000000000000000000000000000000000000600052602260045260246000fd5b600060028204905060018216806200018757607f821691505b6020821081036200019d576200019c6200013f565b5b50919050565b60008190508160005260206000209050919050565b60006020601f8301049050919050565b600082821b905092915050565b600060088302620002077fffffffffffffffffffffffffffffffffffffffffffffffffffffffffffffffff82620001c8565b620002138683620001c8565b95508019841693508086168417925050509392505050565b6000819050919050565b6000819050919050565b6000620002606200025a62000254846200022b565b62000235565b6200022b565b9050919050565b6000819050919050565b6200027c836200023f565b620002946200028b8262000267565b848454620001d5565b825550505050565b600090565b620002ab6200029c565b620002b881848462000271565b505050565b5b81811015620002e057620002d4600082620002a1565b600181019050620002be565b5050565b601f8211156200032f57620002f981620001a3565b6200030484620001b8565b8101602085101562000314578190505b6200032c6200032385620001b8565b830182620002bd565b50505b505050565b600082821c905092915050565b6000620003546000198460080262000334565b1980831691505092915050565b60006200036f838362000341565b9150826002028217905092915050565b6200038a8262000105565b67ffffffffffffffff811115620003a657620003a562000110565b5b620003b282546200016e565b620003bf828285620002e4565b600060209050601f831160018114620003f75760008415620003e2578287015190505b620003ee858262000361565b8655506200045e565b601f1984166200040786620001a3565b60005b8281101562000431578489015182556001820191506020850194506020810190506200040a565b868310156200045157848901516200044d601f89168262000341565b8355505b6001600288020188555050505b505050505050565b61587580620004766000396000f3fe6080604052600436106101d85760003560e01c80636352211e11610102578063baef978711610095578063c9df908111610064578063c9df9081146106bc578063cde317af146106e5578063d8cb55e314610722578063e985e9c51461074d576101d8565b8063baef9787146105e9578063c36fe3d614610619578063c7e7709d14610656578063c87b56dd1461067f576101d8565b8063776ce868116100d1578063776ce8681461055057806395d89b411461056c578063a22cb46514610597578063b88d4fde146105c0576101d8565b80636352211e1461047057806370a08231146104ad57806374bde7ea146104ea5780637685631914610513576101d8565b8063212350831161017a57806342842e0e1161014957806342842e0e146103c357806342b23193146103ec578063497a98501461041c5780634d00928814610445576101d8565b8063212350831461032a57806323b872dd146103465780633725f2d31461036f5780633b47a9ac14610398576101d8565b806308ffc4a9116101b657806308ffc4a914610282578063095ea7b3146102ad57806317c95709146102d65780631c62094c14610313576101d8565b806301ffc9a7146101dd57806306fdde031461021a578063081812fc14610245575b600080fd5b3480156101e957600080fd5b5061020460048036038101906101ff9190613e13565b61078a565b6040516102119190613e5b565b60405180910390f35b34801561022657600080fd5b5061022f61086c565b60405161023c9190613f06565b60405180910390f35b34801561025157600080fd5b5061026c60048036038101906102679190613f5e565b6108fe565b6040516102799190613fcc565b60405180910390f35b34801561028e57600080fd5b50610297610944565b6040516102a491906142bb565b60405180910390f35b3480156102b957600080fd5b506102d460048036038101906102cf9190614309565b610de6565b005b3480156102e257600080fd5b506102fd60048036038101906102f89190613f5e565b610efd565b60405161030a919061436c565b60405180910390f35b34801561031f57600080fd5b50610328610f2d565b005b610344600480360381019061033f9190613f5e565b611036565b005b34801561035257600080fd5b5061036d60048036038101906103689190614387565b61109b565b005b34801561037b57600080fd5b50610396600480360381019061039191906143da565b6110fb565b005b3480156103a457600080fd5b506103ad6112e6565b6040516103ba91906142bb565b60405180910390f35b3480156103cf57600080fd5b506103ea60048036038101906103e59190614387565b61172e565b005b61040660048036038101906104019190614433565b61174e565b6040516104139190614482565b60405180910390f35b34801561042857600080fd5b50610443600480360381019061043e91906145d2565b61187c565b005b34801561045157600080fd5b5061045a6118ba565b6040516104679190614482565b60405180910390f35b34801561047c57600080fd5b5061049760048036038101906104929190613f5e565b6118d0565b6040516104a49190613fcc565b60405180910390f35b3480156104b957600080fd5b506104d460048036038101906104cf91906143da565b611956565b6040516104e19190614482565b60405180910390f35b3480156104f657600080fd5b50610511600480360381019061050c9190613f5e565b611a0d565b005b34801561051f57600080fd5b5061053a60048036038101906105359190613f5e565b611a3e565b6040516105479190614753565b60405180910390f35b61056a60048036038101906105659190614433565b611d7a565b005b34801561057857600080fd5b50610581611e99565b60405161058e9190613f06565b60405180910390f35b3480156105a357600080fd5b506105be60048036038101906105b991906147a1565b611f2b565b005b3480156105cc57600080fd5b506105e760048036038101906105e29190614882565b611f41565b005b61060360048036038101906105fe9190613f5e565b611fa3565b6040516106109190613e5b565b60405180910390f35b34801561062557600080fd5b50610640600480360381019061063b9190613f5e565b6120a2565b60405161064d9190613fcc565b60405180910390f35b34801561066257600080fd5b5061067d600480360381019061067891906143da565b6120e0565b005b34801561068b57600080fd5b506106a660048036038101906106a19190613f5e565b6123b9565b6040516106b39190613f06565b60405180910390f35b3480156106c857600080fd5b506106e360048036038101906106de9190613f5e565b6124cb565b005b3480156106f157600080fd5b5061070c60048036038101906107079190613f5e565b6124fc565b6040516107199190613e5b565b60405180910390f35b34801561072e57600080fd5b50610737612507565b60405161074491906142bb565b60405180910390f35b34801561075957600080fd5b50610774600480360381019061076f9190614905565b61294f565b6040516107819190613e5b565b60405180910390f35b60007f80ac58cd000000000000000000000000000000000000000000000000000000007bffffffffffffffffffffffffffffffffffffffffffffffffffffffff1916827bffffffffffffffffffffffffffffffffffffffffffffffffffffffff1916148061085557507f5b5e139f000000000000000000000000000000000000000000000000000000007bffffffffffffffffffffffffffffffffffffffffffffffffffffffff1916827bffffffffffffffffffffffffffffffffffffffffffffffffffffffff1916145b806108655750610864826129f9565b5b9050919050565b60606003805461087b90614974565b80601f01602080910402602001604051908101604052809291908181526020018280546108a790614974565b80156108f45780601f106108c9576101008083540402835291602001916108f4565b820191906000526020600020905b8154815290600101906020018083116108d757829003601f168201915b5050505050905090565b600061090982612a63565b6007600083815260200190815260200160002060009054906101000a900473ffffffffffffffffffffffffffffffffffffffff169050919050565b60606000610952600a612aae565b905060008167ffffffffffffffff8111156109705761096f6144a7565b5b6040519080825280602002602001820160405280156109a957816020015b610996613d2f565b81526020019060019003908161098e5790505b5090506000600190505b82811015610ddd576000600d600083815260200190815260200160002060040180549050905060005b81811015610dc8573373ffffffffffffffffffffffffffffffffffffffff16600d60008581526020019081526020016000206004018281548110610a2357610a226149a5565b5b9060005260206000200160009054906101000a900473ffffffffffffffffffffffffffffffffffffffff1673ffffffffffffffffffffffffffffffffffffffff1603610db557600d600084815260200190815260200160002060405180610120016040529081600082015481526020016001820160009054906101000a900473ffffffffffffffffffffffffffffffffffffffff1673ffffffffffffffffffffffffffffffffffffffff1673ffffffffffffffffffffffffffffffffffffffff1681526020016002820160009054906101000a900473ffffffffffffffffffffffffffffffffffffffff1673ffffffffffffffffffffffffffffffffffffffff1673ffffffffffffffffffffffffffffffffffffffff1681526020016003820154815260200160048201805480602002602001604051908101604052809291908181526020018280548015610bcd57602002820191906000526020600020905b8160009054906101000a900473ffffffffffffffffffffffffffffffffffffffff1673ffffffffffffffffffffffffffffffffffffffff1681526020019060010190808311610b83575b5050505050815260200160058201548152602001600682018054610bf090614974565b80601f0160208091040260200160405190810160405280929190818152602001828054610c1c90614974565b8015610c695780601f10610c3e57610100808354040283529160200191610c69565b820191906000526020600020905b815481529060010190602001808311610c4c57829003601f168201915b50505050508152602001600782018054610c8290614974565b80601f0160208091040260200160405190810160405280929190818152602001828054610cae90614974565b8015610cfb5780601f10610cd057610100808354040283529160200191610cfb565b820191906000526020600020905b815481529060010190602001808311610cde57829003601f168201915b50505050508152602001600882018054610d1490614974565b80601f0160208091040260200160405190810160405280929190818152602001828054610d4090614974565b8015610d8d5780601f10610d6257610100808354040283529160200191610d8d565b820191906000526020600020905b815481529060010190602001808311610d7057829003601f168201915b505050505081525050848481518110610da957610da86149a5565b5b60200260200101819052505b8080610dc090614a03565b9150506109dc565b50508080610dd590614a03565b9150506109b3565b50809250505090565b6000610df1826118d0565b90508073ffffffffffffffffffffffffffffffffffffffff168373ffffffffffffffffffffffffffffffffffffffff1603610e61576040517f08c379a0000000000000000000000000000000000000000000000000000000008152600401610e5890614abd565b60405180910390fd5b8073ffffffffffffffffffffffffffffffffffffffff16610e80612abc565b73ffffffffffffffffffffffffffffffffffffffff161480610eaf5750610eae81610ea9612abc565b61294f565b5b610eee576040517f08c379a0000000000000000000000000000000000000000000000000000000008152600401610ee590614b4f565b60405180910390fd5b610ef88383612ac4565b505050565b600080600083815260200190815260200160002060009054906101000a900467ffffffffffffffff169050919050565b6000610f396001612aae565b9050600080600190505b82811015610fcc573373ffffffffffffffffffffffffffffffffffffffff166002600083815260200190815260200160002060000160009054906101000a900473ffffffffffffffffffffffffffffffffffffffff1673ffffffffffffffffffffffffffffffffffffffff1603610fb957600191505b8080610fc490614a03565b915050610f43565b508061102857336002600084815260200190815260200160002060000160006101000a81548173ffffffffffffffffffffffffffffffffffffffff021916908373ffffffffffffffffffffffffffffffffffffffff1602179055505b61103260016129e3565b5050565b60008082815260200190815260200160002060006101000a81549067ffffffffffffffff0219169055807f2ec2be2c4b90c2cf13ecb6751a24daed6bb741ae5ed3f7371aabf9402f6d62e860006040516110909190614bb4565b60405180910390a250565b6110ac6110a6612abc565b82612b7d565b6110eb576040517f08c379a00000000000000000000000000000000000000000000000000000000081526004016110e290614c41565b60405180910390fd5b6110f6838383612c12565b505050565b60006111076001612aae565b90506000600190505b818110156112e1576111f36002600083815260200190815260200160002060000160009054906101000a900473ffffffffffffffffffffffffffffffffffffffff16600260008481526020019081526020016000206001018054806020026020016040519081016040528092919081815260200182805480156111e857602002820191906000526020600020905b8160009054906101000a900473ffffffffffffffffffffffffffffffffffffffff1673ffffffffffffffffffffffffffffffffffffffff168152602001906001019080831161119e575b505050505085612f0b565b6112ce6002600083815260200190815260200160002060000160009054906101000a900473ffffffffffffffffffffffffffffffffffffffff16600260008481526020019081526020016000206002018054806020026020016040519081016040528092919081815260200182805480156112c357602002820191906000526020600020905b8160009054906101000a900473ffffffffffffffffffffffffffffffffffffffff1673ffffffffffffffffffffffffffffffffffffffff1681526020019060010190808311611279575b505050505033612fed565b80806112d990614a03565b915050611110565b505050565b606060006112f4600a612aae565b905060008167ffffffffffffffff811115611312576113116144a7565b5b60405190808252806020026020018201604052801561134b57816020015b611338613d2f565b8152602001906001900390816113305790505b5090506000600190505b82811015611725573073ffffffffffffffffffffffffffffffffffffffff16600d600083815260200190815260200160002060020160009054906101000a900473ffffffffffffffffffffffffffffffffffffffff1673ffffffffffffffffffffffffffffffffffffffff160361171257600d600082815260200190815260200160002060405180610120016040529081600082015481526020016001820160009054906101000a900473ffffffffffffffffffffffffffffffffffffffff1673ffffffffffffffffffffffffffffffffffffffff1673ffffffffffffffffffffffffffffffffffffffff1681526020016002820160009054906101000a900473ffffffffffffffffffffffffffffffffffffffff1673ffffffffffffffffffffffffffffffffffffffff1673ffffffffffffffffffffffffffffffffffffffff168152602001600382015481526020016004820180548060200260200160405190810160405280929190818152602001828054801561152a57602002820191906000526020600020905b8160009054906101000a900473ffffffffffffffffffffffffffffffffffffffff1673ffffffffffffffffffffffffffffffffffffffff16815260200190600101908083116114e0575b505050505081526020016005820154815260200160068201805461154d90614974565b80601f016020809104026020016040519081016040528092919081815260200182805461157990614974565b80156115c65780601f1061159b576101008083540402835291602001916115c6565b820191906000526020600020905b8154815290600101906020018083116115a957829003601f168201915b505050505081526020016007820180546115df90614974565b80601f016020809104026020016040519081016040528092919081815260200182805461160b90614974565b80156116585780601f1061162d57610100808354040283529160200191611658565b820191906000526020600020905b81548152906001019060200180831161163b57829003601f168201915b5050505050815260200160088201805461167190614974565b80601f016020809104026020016040519081016040528092919081815260200182805461169d90614974565b80156116ea5780601f106116bf576101008083540402835291602001916116ea565b820191906000526020600020905b8154815290600101906020018083116116cd57829003601f168201915b505050505081525050828281518110611706576117056149a5565b5b60200260200101819052505b808061171d90614a03565b915050611355565b50809250505090565b61174983838360405180602001604052806000815250611f41565b505050565b600061175a3384612b7d565b611799576040517f08c379a000000000000000000000000000000000000000000000000000000000815260040161179090614cad565b60405180910390fd5b6117a4333085612c12565b670de0b6b3a7640000346117b89190614cfc565b600d60008581526020019081526020016000206003018190555030600d600085815260200190815260200160002060020160006101000a81548173ffffffffffffffffffffffffffffffffffffffff021916908373ffffffffffffffffffffffffffffffffffffffff1602179055508160008085815260200190815260200160002060006101000a81548167ffffffffffffffff021916908367ffffffffffffffff16021790555061186a600b6129e3565b611874600b612aae565b905092915050565b6000611888600a612aae565b905061189433826130cf565b61189e81856132ec565b6118aa81848487613359565b6118b4600a6129e3565b50505050565b6000806118c76001612aae565b90508091505090565b6000806118dc83613538565b9050600073ffffffffffffffffffffffffffffffffffffffff168173ffffffffffffffffffffffffffffffffffffffff160361194d576040517f08c379a000000000000000000000000000000000000000000000000000000000815260040161194490614d79565b60405180910390fd5b80915050919050565b60008073ffffffffffffffffffffffffffffffffffffffff168273ffffffffffffffffffffffffffffffffffffffff16036119c6576040517f08c379a00000000000000000000000000000000000000000000000000000000081526004016119bd90614e0b565b60405180910390fd5b600660008373ffffffffffffffffffffffffffffffffffffffff1673ffffffffffffffffffffffffffffffffffffffff168152602001908152602001600020549050919050565b6001600d60008381526020019081526020016000206005016000828254611a349190614e2b565b9250508190555050565b611a46613d2f565b600d600083815260200190815260200160002060405180610120016040529081600082015481526020016001820160009054906101000a900473ffffffffffffffffffffffffffffffffffffffff1673ffffffffffffffffffffffffffffffffffffffff1673ffffffffffffffffffffffffffffffffffffffff1681526020016002820160009054906101000a900473ffffffffffffffffffffffffffffffffffffffff1673ffffffffffffffffffffffffffffffffffffffff1673ffffffffffffffffffffffffffffffffffffffff1681526020016003820154815260200160048201805480602002602001604051908101604052809291908181526020018280548015611baa57602002820191906000526020600020905b8160009054906101000a900473ffffffffffffffffffffffffffffffffffffffff1673ffffffffffffffffffffffffffffffffffffffff1681526020019060010190808311611b60575b5050505050815260200160058201548152602001600682018054611bcd90614974565b80601f0160208091040260200160405190810160405280929190818152602001828054611bf990614974565b8015611c465780601f10611c1b57610100808354040283529160200191611c46565b820191906000526020600020905b815481529060010190602001808311611c2957829003601f168201915b50505050508152602001600782018054611c5f90614974565b80601f0160208091040260200160405190810160405280929190818152602001828054611c8b90614974565b8015611cd85780601f10611cad57610100808354040283529160200191611cd8565b820191906000526020600020905b815481529060010190602001808311611cbb57829003601f168201915b50505050508152602001600882018054611cf190614974565b80601f0160208091040260200160405190810160405280929190818152602001828054611d1d90614974565b8015611d6a5780601f10611d3f57610100808354040283529160200191611d6a565b820191906000526020600020905b815481529060010190602001808311611d4d57829003601f168201915b5050505050815250509050919050565b600080600084815260200190815260200160002060009054906101000a900467ffffffffffffffff1690506000808267ffffffffffffffff1603611dcb578242611dc49190614e5f565b9050611e22565b611dd4846124fc565b611e13576040517f08c379a0000000000000000000000000000000000000000000000000000000008152600401611e0a90614ee7565b60405180910390fd5b8282611e1f9190614e5f565b90505b8060008086815260200190815260200160002060006101000a81548167ffffffffffffffff021916908367ffffffffffffffff160217905550837f2ec2be2c4b90c2cf13ecb6751a24daed6bb741ae5ed3f7371aabf9402f6d62e882604051611e8b919061436c565b60405180910390a250505050565b606060048054611ea890614974565b80601f0160208091040260200160405190810160405280929190818152602001828054611ed490614974565b8015611f215780601f10611ef657610100808354040283529160200191611f21565b820191906000526020600020905b815481529060010190602001808311611f0457829003601f168201915b5050505050905090565b611f3d611f36612abc565b8383613575565b5050565b611f52611f4c612abc565b83612b7d565b611f91576040517f08c379a0000000000000000000000000000000000000000000000000000000008152600401611f8890614c41565b60405180910390fd5b611f9d848484846136e1565b50505050565b6000600d600083815260200190815260200160002060010160009054906101000a900473ffffffffffffffffffffffffffffffffffffffff1673ffffffffffffffffffffffffffffffffffffffff166108fc349081150290604051600060405180830381858888f19350505050158015612021573d6000803e3d6000fd5b50600d6000838152602001908152602001600020600401339080600181540180825580915050600190039060005260206000200160009091909190916101000a81548173ffffffffffffffffffffffffffffffffffffffff021916908373ffffffffffffffffffffffffffffffffffffffff16021790555060019050919050565b60026020528060005260406000206000915090508060000160009054906101000a900473ffffffffffffffffffffffffffffffffffffffff16905081565b6120e98161373d565b6120f23361373d565b60006120fe6001612aae565b9050612109816137d6565b6000600190505b818110156123b4576121576002600083815260200190815260200160002060000160009054906101000a900473ffffffffffffffffffffffffffffffffffffffff1661373d565b3373ffffffffffffffffffffffffffffffffffffffff166002600083815260200190815260200160002060000160009054906101000a900473ffffffffffffffffffffffffffffffffffffffff1673ffffffffffffffffffffffffffffffffffffffff160361225e5760026000828152602001908152602001600020600201839080600181540180825580915050600190039060005260206000200160009091909190916101000a81548173ffffffffffffffffffffffffffffffffffffffff021916908373ffffffffffffffffffffffffffffffffffffffff16021790555061225960026000838152602001908152602001600020600201805490506137d6565b612340565b8273ffffffffffffffffffffffffffffffffffffffff166002600083815260200190815260200160002060000160009054906101000a900473ffffffffffffffffffffffffffffffffffffffff1673ffffffffffffffffffffffffffffffffffffffff160361233f5760026000828152602001908152602001600020600101339080600181540180825580915050600190039060005260206000200160009091909190916101000a81548173ffffffffffffffffffffffffffffffffffffffff021916908373ffffffffffffffffffffffffffffffffffffffff1602179055505b5b61237f6002600083815260200190815260200160002060000160009054906101000a900473ffffffffffffffffffffffffffffffffffffffff1661373d565b6123a160026000838152602001908152602001600020600201805490506137d6565b80806123ac90614a03565b915050612110565b505050565b60606123c482612a63565b60006009600084815260200190815260200160002080546123e490614974565b80601f016020809104026020016040519081016040528092919081815260200182805461241090614974565b801561245d5780601f106124325761010080835404028352916020019161245d565b820191906000526020600020905b81548152906001019060200180831161244057829003601f168201915b50505050509050600061246e61386f565b905060008151036124835781925050506124c6565b6000825111156124b85780826040516020016124a0929190614f43565b604051602081830303815290604052925050506124c6565b6124c184613886565b925050505b919050565b6001600d600083815260200190815260200160002060050160008282546124f29190614f67565b9250508190555050565b600060019050919050565b60606000612515600a612aae565b905060008167ffffffffffffffff811115612533576125326144a7565b5b60405190808252806020026020018201604052801561256c57816020015b612559613d2f565b8152602001906001900390816125515790505b5090506000600190505b82811015612946573373ffffffffffffffffffffffffffffffffffffffff16600d600083815260200190815260200160002060010160009054906101000a900473ffffffffffffffffffffffffffffffffffffffff1673ffffffffffffffffffffffffffffffffffffffff160361293357600d600082815260200190815260200160002060405180610120016040529081600082015481526020016001820160009054906101000a900473ffffffffffffffffffffffffffffffffffffffff1673ffffffffffffffffffffffffffffffffffffffff1673ffffffffffffffffffffffffffffffffffffffff1681526020016002820160009054906101000a900473ffffffffffffffffffffffffffffffffffffffff1673ffffffffffffffffffffffffffffffffffffffff1673ffffffffffffffffffffffffffffffffffffffff168152602001600382015481526020016004820180548060200260200160405190810160405280929190818152602001828054801561274b57602002820191906000526020600020905b8160009054906101000a900473ffffffffffffffffffffffffffffffffffffffff1673ffffffffffffffffffffffffffffffffffffffff1681526020019060010190808311612701575b505050505081526020016005820154815260200160068201805461276e90614974565b80601f016020809104026020016040519081016040528092919081815260200182805461279a90614974565b80156127e75780601f106127bc576101008083540402835291602001916127e7565b820191906000526020600020905b8154815290600101906020018083116127ca57829003601f168201915b5050505050815260200160078201805461280090614974565b80601f016020809104026020016040519081016040528092919081815260200182805461282c90614974565b80156128795780601f1061284e57610100808354040283529160200191612879565b820191906000526020600020905b81548152906001019060200180831161285c57829003601f168201915b5050505050815260200160088201805461289290614974565b80601f01602080910402602001604051908101604052809291908181526020018280546128be90614974565b801561290b5780601f106128e05761010080835404028352916020019161290b565b820191906000526020600020905b8154815290600101906020018083116128ee57829003601f168201915b505050505081525050828281518110612927576129266149a5565b5b60200260200101819052505b808061293e90614a03565b915050612576565b50809250505090565b6000600860008473ffffffffffffffffffffffffffffffffffffffff1673ffffffffffffffffffffffffffffffffffffffff16815260200190815260200160002060008373ffffffffffffffffffffffffffffffffffffffff1673ffffffffffffffffffffffffffffffffffffffff16815260200190815260200160002060009054906101000a900460ff16905092915050565b6001816000016000828254019250508190555050565b60007f01ffc9a7000000000000000000000000000000000000000000000000000000007bffffffffffffffffffffffffffffffffffffffffffffffffffffffff1916827bffffffffffffffffffffffffffffffffffffffffffffffffffffffff1916149050919050565b612a6c816138ee565b612aab576040517f08c379a0000000000000000000000000000000000000000000000000000000008152600401612aa290614d79565b60405180910390fd5b50565b600081600001549050919050565b600033905090565b816007600083815260200190815260200160002060006101000a81548173ffffffffffffffffffffffffffffffffffffffff021916908373ffffffffffffffffffffffffffffffffffffffff160217905550808273ffffffffffffffffffffffffffffffffffffffff16612b37836118d0565b73ffffffffffffffffffffffffffffffffffffffff167f8c5be1e5ebec7d5bd14f71427d1e84f3dd0314c0f7b2291e5b200ac8c7c3b92560405160405180910390a45050565b600080612b89836118d0565b90508073ffffffffffffffffffffffffffffffffffffffff168473ffffffffffffffffffffffffffffffffffffffff161480612bcb5750612bca818561294f565b5b80612c0957508373ffffffffffffffffffffffffffffffffffffffff16612bf1846108fe565b73ffffffffffffffffffffffffffffffffffffffff16145b91505092915050565b8273ffffffffffffffffffffffffffffffffffffffff16612c32826118d0565b73ffffffffffffffffffffffffffffffffffffffff1614612c88576040517f08c379a0000000000000000000000000000000000000000000000000000000008152600401612c7f9061500d565b60405180910390fd5b600073ffffffffffffffffffffffffffffffffffffffff168273ffffffffffffffffffffffffffffffffffffffff1603612cf7576040517f08c379a0000000000000000000000000000000000000000000000000000000008152600401612cee9061509f565b60405180910390fd5b612d04838383600161392f565b8273ffffffffffffffffffffffffffffffffffffffff16612d24826118d0565b73ffffffffffffffffffffffffffffffffffffffff1614612d7a576040517f08c379a0000000000000000000000000000000000000000000000000000000008152600401612d719061500d565b60405180910390fd5b6007600082815260200190815260200160002060006101000a81549073ffffffffffffffffffffffffffffffffffffffff02191690556001600660008573ffffffffffffffffffffffffffffffffffffffff1673ffffffffffffffffffffffffffffffffffffffff168152602001908152602001600020600082825403925050819055506001600660008473ffffffffffffffffffffffffffffffffffffffff1673ffffffffffffffffffffffffffffffffffffffff16815260200190815260200160002060008282540192505081905550816005600083815260200190815260200160002060006101000a81548173ffffffffffffffffffffffffffffffffffffffff021916908373ffffffffffffffffffffffffffffffffffffffff160217905550808273ffffffffffffffffffffffffffffffffffffffff168473ffffffffffffffffffffffffffffffffffffffff167fddf252ad1be2c89b69c2b068fc378daa952ba7f163c4a11628f55a4df523b3ef60405160405180910390a4612f068383836001613935565b505050565b8073ffffffffffffffffffffffffffffffffffffffff168373ffffffffffffffffffffffffffffffffffffffff1603612fe857600082905060005b8151811015612fe5573373ffffffffffffffffffffffffffffffffffffffff16828281518110612f7957612f786149a5565b5b602002602001015173ffffffffffffffffffffffffffffffffffffffff1603612fd257818181518110612faf57612fae6149a5565b5b60200260200101600073ffffffffffffffffffffffffffffffffffffffff168152505b8080612fdd90614a03565b915050612f46565b50505b505050565b8073ffffffffffffffffffffffffffffffffffffffff168373ffffffffffffffffffffffffffffffffffffffff16036130ca57600082905060005b81518110156130c7578273ffffffffffffffffffffffffffffffffffffffff1682828151811061305b5761305a6149a5565b5b602002602001015173ffffffffffffffffffffffffffffffffffffffff16036130b457818181518110613091576130906149a5565b5b60200260200101600073ffffffffffffffffffffffffffffffffffffffff168152505b80806130bf90614a03565b915050613028565b50505b505050565b600073ffffffffffffffffffffffffffffffffffffffff168273ffffffffffffffffffffffffffffffffffffffff160361313e576040517f08c379a00000000000000000000000000000000000000000000000000000000081526004016131359061510b565b60405180910390fd5b613147816138ee565b15613187576040517f08c379a000000000000000000000000000000000000000000000000000000000815260040161317e90615177565b60405180910390fd5b61319560008383600161392f565b61319e816138ee565b156131de576040517f08c379a00000000000000000000000000000000000000000000000000000000081526004016131d590615177565b60405180910390fd5b6001600660008473ffffffffffffffffffffffffffffffffffffffff1673ffffffffffffffffffffffffffffffffffffffff16815260200190815260200160002060008282540192505081905550816005600083815260200190815260200160002060006101000a81548173ffffffffffffffffffffffffffffffffffffffff021916908373ffffffffffffffffffffffffffffffffffffffff160217905550808273ffffffffffffffffffffffffffffffffffffffff16600073ffffffffffffffffffffffffffffffffffffffff167fddf252ad1be2c89b69c2b068fc378daa952ba7f163c4a11628f55a4df523b3ef60405160405180910390a46132e8600083836001613935565b5050565b6132f5826138ee565b613334576040517f08c379a000000000000000000000000000000000000000000000000000000000815260040161332b90615209565b60405180910390fd5b8060096000848152602001908152602001600020908161335491906153cb565b505050565b83600d60008681526020019081526020016000206000018190555033600d600086815260200190815260200160002060010160006101000a81548173ffffffffffffffffffffffffffffffffffffffff021916908373ffffffffffffffffffffffffffffffffffffffff16021790555033600d600086815260200190815260200160002060020160006101000a81548173ffffffffffffffffffffffffffffffffffffffff021916908373ffffffffffffffffffffffffffffffffffffffff1602179055506000600d6000868152602001908152602001600020600301819055506001600d60008681526020019081526020016000206005018190555082600d6000868152602001908152602001600020600601908161347991906153cb565b5081600d6000868152602001908152602001600020600701908161349d91906153cb565b5080600d600086815260200190815260200160002060080190816134c191906153cb565b50837f6b0636364e6bb3c1836823c4035fa96c342686af76b1ec221f6fec7b83fc272033336000600d60008a8152602001908152602001600020600401600d60008b815260200190815260200160002060050154898960405161352a97969594939291906155da565b60405180910390a250505050565b60006005600083815260200190815260200160002060009054906101000a900473ffffffffffffffffffffffffffffffffffffffff169050919050565b8173ffffffffffffffffffffffffffffffffffffffff168373ffffffffffffffffffffffffffffffffffffffff16036135e3576040517f08c379a00000000000000000000000000000000000000000000000000000000081526004016135da906156aa565b60405180910390fd5b80600860008573ffffffffffffffffffffffffffffffffffffffff1673ffffffffffffffffffffffffffffffffffffffff16815260200190815260200160002060008473ffffffffffffffffffffffffffffffffffffffff1673ffffffffffffffffffffffffffffffffffffffff16815260200190815260200160002060006101000a81548160ff0219169083151502179055508173ffffffffffffffffffffffffffffffffffffffff168373ffffffffffffffffffffffffffffffffffffffff167f17307eab39ab6107e8899845ad3d59bd9653f200f220920489ca2b5937696c31836040516136d49190613e5b565b60405180910390a3505050565b6136ec848484612c12565b6136f88484848461393b565b613737576040517f08c379a000000000000000000000000000000000000000000000000000000000815260040161372e9061573c565b60405180910390fd5b50505050565b6137d3816040516024016137519190613fcc565b6040516020818303038152906040527f2c2ecbc2000000000000000000000000000000000000000000000000000000007bffffffffffffffffffffffffffffffffffffffffffffffffffffffff19166020820180517bffffffffffffffffffffffffffffffffffffffffffffffffffffffff8381831617835250505050613ac2565b50565b61386c816040516024016137ea9190614482565b6040516020818303038152906040527ff82c50f1000000000000000000000000000000000000000000000000000000007bffffffffffffffffffffffffffffffffffffffffffffffffffffffff19166020820180517bffffffffffffffffffffffffffffffffffffffffffffffffffffffff8381831617835250505050613ac2565b50565b606060405180602001604052806000815250905090565b606061389182612a63565b600061389b61386f565b905060008151116138bb57604051806020016040528060008152506138e6565b806138c584613aeb565b6040516020016138d6929190614f43565b6040516020818303038152906040525b915050919050565b60008073ffffffffffffffffffffffffffffffffffffffff1661391083613538565b73ffffffffffffffffffffffffffffffffffffffff1614159050919050565b50505050565b50505050565b600061395c8473ffffffffffffffffffffffffffffffffffffffff16613bb9565b15613ab5578373ffffffffffffffffffffffffffffffffffffffff1663150b7a02613985612abc565b8786866040518563ffffffff1660e01b81526004016139a794939291906157b1565b6020604051808303816000875af19250505080156139e357506040513d601f19601f820116820180604052508101906139e09190615812565b60015b613a65573d8060008114613a13576040519150601f19603f3d011682016040523d82523d6000602084013e613a18565b606091505b506000815103613a5d576040517f08c379a0000000000000000000000000000000000000000000000000000000008152600401613a549061573c565b60405180910390fd5b805181602001fd5b63150b7a0260e01b7bffffffffffffffffffffffffffffffffffffffffffffffffffffffff1916817bffffffffffffffffffffffffffffffffffffffffffffffffffffffff191614915050613aba565b600190505b949350505050565b60008151905060006a636f6e736f6c652e6c6f679050602083016000808483855afa5050505050565b606060006001613afa84613bdc565b01905060008167ffffffffffffffff811115613b1957613b186144a7565b5b6040519080825280601f01601f191660200182016040528015613b4b5781602001600182028036833780820191505090505b509050600082602001820190505b600115613bae578080600190039150507f3031323334353637383961626364656600000000000000000000000000000000600a86061a8153600a8581613ba257613ba1614ccd565b5b04945060008503613b59575b819350505050919050565b6000808273ffffffffffffffffffffffffffffffffffffffff163b119050919050565b600080600090507a184f03e93ff9f4daa797ed6e38ed64bf6a1f0100000000000000008310613c3a577a184f03e93ff9f4daa797ed6e38ed64bf6a1f0100000000000000008381613c3057613c2f614ccd565b5b0492506040810190505b6d04ee2d6d415b85acef81000000008310613c77576d04ee2d6d415b85acef81000000008381613c6d57613c6c614ccd565b5b0492506020810190505b662386f26fc100008310613ca657662386f26fc100008381613c9c57613c9b614ccd565b5b0492506010810190505b6305f5e1008310613ccf576305f5e1008381613cc557613cc4614ccd565b5b0492506008810190505b6127108310613cf4576127108381613cea57613ce9614ccd565b5b0492506004810190505b60648310613d175760648381613d0d57613d0c614ccd565b5b0492506002810190505b600a8310613d26576001810190505b80915050919050565b60405180610120016040528060008152602001600073ffffffffffffffffffffffffffffffffffffffff168152602001600073ffffffffffffffffffffffffffffffffffffffff1681526020016000815260200160608152602001600081526020016060815260200160608152602001606081525090565b6000604051905090565b600080fd5b600080fd5b60007fffffffff0000000000000000000000000000000000000000000000000000000082169050919050565b613df081613dbb565b8114613dfb57600080fd5b50565b600081359050613e0d81613de7565b92915050565b600060208284031215613e2957613e28613db1565b5b6000613e3784828501613dfe565b91505092915050565b60008115159050919050565b613e5581613e40565b82525050565b6000602082019050613e706000830184613e4c565b92915050565b600081519050919050565b600082825260208201905092915050565b60005b83811015613eb0578082015181840152602081019050613e95565b60008484015250505050565b6000601f19601f8301169050919050565b6000613ed882613e76565b613ee28185613e81565b9350613ef2818560208601613e92565b613efb81613ebc565b840191505092915050565b60006020820190508181036000830152613f208184613ecd565b905092915050565b6000819050919050565b613f3b81613f28565b8114613f4657600080fd5b50565b600081359050613f5881613f32565b92915050565b600060208284031215613f7457613f73613db1565b5b6000613f8284828501613f49565b91505092915050565b600073ffffffffffffffffffffffffffffffffffffffff82169050919050565b6000613fb682613f8b565b9050919050565b613fc681613fab565b82525050565b6000602082019050613fe16000830184613fbd565b92915050565b600081519050919050565b600082825260208201905092915050565b6000819050602082019050919050565b61401c81613f28565b82525050565b600061402d82613f8b565b9050919050565b61403d81614022565b82525050565b600081519050919050565b600082825260208201905092915050565b6000819050602082019050919050565b61407881613fab565b82525050565b600061408a838361406f565b60208301905092915050565b6000602082019050919050565b60006140ae82614043565b6140b8818561404e565b93506140c38361405f565b8060005b838110156140f45781516140db888261407e565b97506140e683614096565b9250506001810190506140c7565b5085935050505092915050565b600082825260208201905092915050565b600061411d82613e76565b6141278185614101565b9350614137818560208601613e92565b61414081613ebc565b840191505092915050565b6000610120830160008301516141646000860182614013565b5060208301516141776020860182614034565b50604083015161418a6040860182614034565b50606083015161419d6060860182614013565b50608083015184820360808601526141b582826140a3565b91505060a08301516141ca60a0860182614013565b5060c083015184820360c08601526141e28282614112565b91505060e083015184820360e08601526141fc8282614112565b9150506101008301518482036101008601526142188282614112565b9150508091505092915050565b6000614231838361414b565b905092915050565b6000602082019050919050565b600061425182613fe7565b61425b8185613ff2565b93508360208202850161426d85614003565b8060005b858110156142a9578484038952815161428a8582614225565b945061429583614239565b925060208a01995050600181019050614271565b50829750879550505050505092915050565b600060208201905081810360008301526142d58184614246565b905092915050565b6142e681613fab565b81146142f157600080fd5b50565b600081359050614303816142dd565b92915050565b600080604083850312156143205761431f613db1565b5b600061432e858286016142f4565b925050602061433f85828601613f49565b9150509250929050565b600067ffffffffffffffff82169050919050565b61436681614349565b82525050565b6000602082019050614381600083018461435d565b92915050565b6000806000606084860312156143a05761439f613db1565b5b60006143ae868287016142f4565b93505060206143bf868287016142f4565b92505060406143d086828701613f49565b9150509250925092565b6000602082840312156143f0576143ef613db1565b5b60006143fe848285016142f4565b91505092915050565b61441081614349565b811461441b57600080fd5b50565b60008135905061442d81614407565b92915050565b6000806040838503121561444a57614449613db1565b5b600061445885828601613f49565b92505060206144698582860161441e565b9150509250929050565b61447c81613f28565b82525050565b60006020820190506144976000830184614473565b92915050565b600080fd5b600080fd5b7f4e487b7100000000000000000000000000000000000000000000000000000000600052604160045260246000fd5b6144df82613ebc565b810181811067ffffffffffffffff821117156144fe576144fd6144a7565b5b80604052505050565b6000614511613da7565b905061451d82826144d6565b919050565b600067ffffffffffffffff82111561453d5761453c6144a7565b5b61454682613ebc565b9050602081019050919050565b82818337600083830152505050565b600061457561457084614522565b614507565b905082815260208101848484011115614591576145906144a2565b5b61459c848285614553565b509392505050565b600082601f8301126145b9576145b861449d565b5b81356145c9848260208601614562565b91505092915050565b6000806000606084860312156145eb576145ea613db1565b5b600084013567ffffffffffffffff81111561460957614608613db6565b5b614615868287016145a4565b935050602084013567ffffffffffffffff81111561463657614635613db6565b5b614642868287016145a4565b925050604084013567ffffffffffffffff81111561466357614662613db6565b5b61466f868287016145a4565b9150509250925092565b6000610120830160008301516146926000860182614013565b5060208301516146a56020860182614034565b5060408301516146b86040860182614034565b5060608301516146cb6060860182614013565b50608083015184820360808601526146e382826140a3565b91505060a08301516146f860a0860182614013565b5060c083015184820360c08601526147108282614112565b91505060e083015184820360e086015261472a8282614112565b9150506101008301518482036101008601526147468282614112565b9150508091505092915050565b6000602082019050818103600083015261476d8184614679565b905092915050565b61477e81613e40565b811461478957600080fd5b50565b60008135905061479b81614775565b92915050565b600080604083850312156147b8576147b7613db1565b5b60006147c6858286016142f4565b92505060206147d78582860161478c565b9150509250929050565b600067ffffffffffffffff8211156147fc576147fb6144a7565b5b61480582613ebc565b9050602081019050919050565b6000614825614820846147e1565b614507565b905082815260208101848484011115614841576148406144a2565b5b61484c848285614553565b509392505050565b600082601f8301126148695761486861449d565b5b8135614879848260208601614812565b91505092915050565b6000806000806080858703121561489c5761489b613db1565b5b60006148aa878288016142f4565b94505060206148bb878288016142f4565b93505060406148cc87828801613f49565b925050606085013567ffffffffffffffff8111156148ed576148ec613db6565b5b6148f987828801614854565b91505092959194509250565b6000806040838503121561491c5761491b613db1565b5b600061492a858286016142f4565b925050602061493b858286016142f4565b9150509250929050565b7f4e487b7100000000000000000000000000000000000000000000000000000000600052602260045260246000fd5b6000600282049050600182168061498c57607f821691505b60208210810361499f5761499e614945565b5b50919050565b7f4e487b7100000000000000000000000000000000000000000000000000000000600052603260045260246000fd5b7f4e487b7100000000000000000000000000000000000000000000000000000000600052601160045260246000fd5b6000614a0e82613f28565b91507fffffffffffffffffffffffffffffffffffffffffffffffffffffffffffffffff8203614a4057614a3f6149d4565b5b600182019050919050565b7f4552433732313a20617070726f76616c20746f2063757272656e74206f776e6560008201527f7200000000000000000000000000000000000000000000000000000000000000602082015250565b6000614aa7602183613e81565b9150614ab282614a4b565b604082019050919050565b60006020820190508181036000830152614ad681614a9a565b9050919050565b7f4552433732313a20617070726f76652063616c6c6572206973206e6f7420746f60008201527f6b656e206f776e6572206f7220617070726f76656420666f7220616c6c000000602082015250565b6000614b39603d83613e81565b9150614b4482614add565b604082019050919050565b60006020820190508181036000830152614b6881614b2c565b9050919050565b6000819050919050565b6000819050919050565b6000614b9e614b99614b9484614b6f565b614b79565b614349565b9050919050565b614bae81614b83565b82525050565b6000602082019050614bc96000830184614ba5565b92915050565b7f4552433732313a2063616c6c6572206973206e6f7420746f6b656e206f776e6560008201527f72206f7220617070726f76656400000000000000000000000000000000000000602082015250565b6000614c2b602d83613e81565b9150614c3682614bcf565b604082019050919050565b60006020820190508181036000830152614c5a81614c1e565b9050919050565b7f4f6e6c79204e4654206f776e65722063616e20706572666f726d207468697300600082015250565b6000614c97601f83613e81565b9150614ca282614c61565b602082019050919050565b60006020820190508181036000830152614cc681614c8a565b9050919050565b7f4e487b7100000000000000000000000000000000000000000000000000000000600052601260045260246000fd5b6000614d0782613f28565b9150614d1283613f28565b925082614d2257614d21614ccd565b5b828204905092915050565b7f4552433732313a20696e76616c696420746f6b656e2049440000000000000000600082015250565b6000614d63601883613e81565b9150614d6e82614d2d565b602082019050919050565b60006020820190508181036000830152614d9281614d56565b9050919050565b7f4552433732313a2061646472657373207a65726f206973206e6f74206120766160008201527f6c6964206f776e65720000000000000000000000000000000000000000000000602082015250565b6000614df5602983613e81565b9150614e0082614d99565b604082019050919050565b60006020820190508181036000830152614e2481614de8565b9050919050565b6000614e3682613f28565b9150614e4183613f28565b9250828203905081811115614e5957614e586149d4565b5b92915050565b6000614e6a82614349565b9150614e7583614349565b9250828201905067ffffffffffffffff811115614e9557614e946149d4565b5b92915050565b7f537562736372697074696f6e204e6f742052656e657761626c65000000000000600082015250565b6000614ed1601a83613e81565b9150614edc82614e9b565b602082019050919050565b60006020820190508181036000830152614f0081614ec4565b9050919050565b600081905092915050565b6000614f1d82613e76565b614f278185614f07565b9350614f37818560208601613e92565b80840191505092915050565b6000614f4f8285614f12565b9150614f5b8284614f12565b91508190509392505050565b6000614f7282613f28565b9150614f7d83613f28565b9250828201905080821115614f9557614f946149d4565b5b92915050565b7f4552433732313a207472616e736665722066726f6d20696e636f72726563742060008201527f6f776e6572000000000000000000000000000000000000000000000000000000602082015250565b6000614ff7602583613e81565b915061500282614f9b565b604082019050919050565b6000602082019050818103600083015261502681614fea565b9050919050565b7f4552433732313a207472616e7366657220746f20746865207a65726f2061646460008201527f7265737300000000000000000000000000000000000000000000000000000000602082015250565b6000615089602483613e81565b91506150948261502d565b604082019050919050565b600060208201905081810360008301526150b88161507c565b9050919050565b7f4552433732313a206d696e7420746f20746865207a65726f2061646472657373600082015250565b60006150f5602083613e81565b9150615100826150bf565b602082019050919050565b60006020820190508181036000830152615124816150e8565b9050919050565b7f4552433732313a20746f6b656e20616c7265616479206d696e74656400000000600082015250565b6000615161601c83613e81565b915061516c8261512b565b602082019050919050565b6000602082019050818103600083015261519081615154565b9050919050565b7f45524337323155524953746f726167653a2055524920736574206f66206e6f6e60008201527f6578697374656e7420746f6b656e000000000000000000000000000000000000602082015250565b60006151f3602e83613e81565b91506151fe82615197565b604082019050919050565b60006020820190508181036000830152615222816151e6565b9050919050565b60008190508160005260206000209050919050565b60006020601f8301049050919050565b600082821b905092915050565b60006008830261528b7fffffffffffffffffffffffffffffffffffffffffffffffffffffffffffffffff8261524e565b615295868361524e565b95508019841693508086168417925050509392505050565b60006152c86152c36152be84613f28565b614b79565b613f28565b9050919050565b6000819050919050565b6152e2836152ad565b6152f66152ee826152cf565b84845461525b565b825550505050565b600090565b61530b6152fe565b6153168184846152d9565b505050565b5b8181101561533a5761532f600082615303565b60018101905061531c565b5050565b601f82111561537f5761535081615229565b6153598461523e565b81016020851015615368578190505b61537c6153748561523e565b83018261531b565b50505b505050565b600082821c905092915050565b60006153a260001984600802615384565b1980831691505092915050565b60006153bb8383615391565b9150826002028217905092915050565b6153d482613e76565b67ffffffffffffffff8111156153ed576153ec6144a7565b5b6153f78254614974565b61540282828561533e565b600060209050601f8311600181146154355760008415615423578287015190505b61542d85826153af565b865550615495565b601f19841661544386615229565b60005b8281101561546b57848901518255600182019150602085019450602081019050615446565b868310156154885784890151615484601f891682615391565b8355505b6001600288020188555050505b505050505050565b6154a681614022565b82525050565b60006154c76154c26154bd84614b6f565b614b79565b613f28565b9050919050565b6154d7816154ac565b82525050565b600081549050919050565b600082825260208201905092915050565b60008190508160005260206000209050919050565b60008160001c9050919050565b600073ffffffffffffffffffffffffffffffffffffffff82169050919050565b600061554e6155498361550e565b61551b565b9050919050565b6000615561825461553b565b9050919050565b6000600182019050919050565b6000615580826154dd565b61558a81856154e8565b9350615595836154f9565b8060005b838110156155cd576155aa82615555565b6155b4888261407e565b97506155bf83615568565b925050600181019050615599565b5085935050505092915050565b600060e0820190506155ef600083018a61549d565b6155fc602083018961549d565b61560960408301886154ce565b818103606083015261561b8187615575565b905061562a6080830186614473565b81810360a083015261563c8185613ecd565b905081810360c08301526156508184613ecd565b905098975050505050505050565b7f4552433732313a20617070726f766520746f2063616c6c657200000000000000600082015250565b6000615694601983613e81565b915061569f8261565e565b602082019050919050565b600060208201905081810360008301526156c381615687565b9050919050565b7f4552433732313a207472616e7366657220746f206e6f6e20455243373231526560008201527f63656976657220696d706c656d656e7465720000000000000000000000000000602082015250565b6000615726603283613e81565b9150615731826156ca565b604082019050919050565b6000602082019050818103600083015261575581615719565b9050919050565b600081519050919050565b600082825260208201905092915050565b60006157838261575c565b61578d8185615767565b935061579d818560208601613e92565b6157a681613ebc565b840191505092915050565b60006080820190506157c66000830187613fbd565b6157d36020830186613fbd565b6157e06040830185614473565b81810360608301526157f28184615778565b905095945050505050565b60008151905061580c81613de7565b92915050565b60006020828403121561582857615827613db1565b5b6000615836848285016157fd565b9150509291505056fea2646970667358221220fb9b9bebcb23f016a38007851c40e8d7f1166b4636e4cc5a9950ce5779b5daaf64736f6c63430008120033",
  "linkReferences": {},
  "deployedLinkReferences": {}
}