{
  "_format": "hh-sol-artifact-1",
  "contractName": "NftMarketplace",
  "sourceName": "contracts/NftMarketplace.sol",
  "abi": [
    {
      "inputs": [],
      "stateMutability": "nonpayable",
      "type": "constructor"
    },
    {
      "anonymous": false,
      "inputs": [
        {
          "indexed": true,
          "internalType": "address",
          "name": "owner",
          "type": "address"
        },
        {
          "indexed": true,
          "internalType": "address",
          "name": "approved",
          "type": "address"
        },
        {
          "indexed": true,
          "internalType": "uint256",
          "name": "tokenId",
          "type": "uint256"
        }
      ],
      "name": "Approval",
      "type": "event"
    },
    {
      "anonymous": false,
      "inputs": [
        {
          "indexed": true,
          "internalType": "address",
          "name": "owner",
          "type": "address"
        },
        {
          "indexed": true,
          "internalType": "address",
          "name": "operator",
          "type": "address"
        },
        {
          "indexed": false,
          "internalType": "bool",
          "name": "approved",
          "type": "bool"
        }
      ],
      "name": "ApprovalForAll",
      "type": "event"
    },
    {
      "anonymous": false,
      "inputs": [
        {
          "indexed": true,
          "internalType": "uint256",
          "name": "tokenId",
          "type": "uint256"
        },
        {
          "indexed": false,
          "internalType": "address payable",
          "name": "seller",
          "type": "address"
        },
        {
          "indexed": false,
          "internalType": "address payable",
          "name": "owner",
          "type": "address"
        },
        {
          "indexed": false,
          "internalType": "uint256",
          "name": "price",
          "type": "uint256"
        },
        {
          "indexed": false,
          "internalType": "address[]",
          "name": "subscribers",
          "type": "address[]"
        },
        {
          "indexed": false,
          "internalType": "uint256",
          "name": "likes",
          "type": "uint256"
        },
        {
          "indexed": false,
          "internalType": "string",
          "name": "title",
          "type": "string"
        },
        {
          "indexed": false,
          "internalType": "string",
          "name": "description",
          "type": "string"
        }
      ],
      "name": "NftStructCreated",
      "type": "event"
    },
    {
      "anonymous": false,
      "inputs": [
        {
          "indexed": true,
          "internalType": "uint256",
          "name": "tokenId",
          "type": "uint256"
        },
        {
          "indexed": false,
          "internalType": "uint64",
          "name": "expiration",
          "type": "uint64"
        }
      ],
      "name": "SubscriptionUpdate",
      "type": "event"
    },
    {
      "anonymous": false,
      "inputs": [
        {
          "indexed": true,
          "internalType": "address",
          "name": "from",
          "type": "address"
        },
        {
          "indexed": true,
          "internalType": "address",
          "name": "to",
          "type": "address"
        },
        {
          "indexed": true,
          "internalType": "uint256",
          "name": "tokenId",
          "type": "uint256"
        }
      ],
      "name": "Transfer",
      "type": "event"
    },
    {
      "inputs": [],
      "name": "addProfile",
      "outputs": [],
      "stateMutability": "nonpayable",
      "type": "function"
    },
    {
      "inputs": [
        {
          "internalType": "address",
          "name": "to",
          "type": "address"
        },
        {
          "internalType": "uint256",
          "name": "tokenId",
          "type": "uint256"
        }
      ],
      "name": "approve",
      "outputs": [],
      "stateMutability": "nonpayable",
      "type": "function"
    },
    {
      "inputs": [
        {
          "internalType": "address",
          "name": "owner",
          "type": "address"
        }
      ],
      "name": "balanceOf",
      "outputs": [
        {
          "internalType": "uint256",
          "name": "",
          "type": "uint256"
        }
      ],
      "stateMutability": "view",
      "type": "function"
    },
    {
      "inputs": [
        {
          "internalType": "uint256",
          "name": "_tokenId",
          "type": "uint256"
        }
      ],
      "name": "buySubscription",
      "outputs": [
        {
          "internalType": "bool",
          "name": "",
          "type": "bool"
        }
      ],
      "stateMutability": "payable",
      "type": "function"
    },
    {
      "inputs": [
        {
          "internalType": "uint256",
          "name": "_tokenId",
          "type": "uint256"
        }
      ],
      "name": "cancelSubscription",
      "outputs": [],
      "stateMutability": "payable",
      "type": "function"
    },
    {
      "inputs": [
        {
          "internalType": "string",
          "name": "_tokenURI",
          "type": "string"
        },
        {
          "internalType": "string",
          "name": "_title",
          "type": "string"
        },
        {
          "internalType": "string",
          "name": "_description",
          "type": "string"
        }
      ],
      "name": "createNft",
      "outputs": [],
      "stateMutability": "nonpayable",
      "type": "function"
    },
    {
      "inputs": [
        {
          "internalType": "uint256",
          "name": "_tokenId",
          "type": "uint256"
        }
      ],
      "name": "expiresAt",
      "outputs": [
        {
          "internalType": "uint64",
          "name": "",
          "type": "uint64"
        }
      ],
      "stateMutability": "view",
      "type": "function"
    },
    {
      "inputs": [
        {
          "internalType": "address",
          "name": "_account",
          "type": "address"
        }
      ],
      "name": "followProfile",
      "outputs": [],
      "stateMutability": "nonpayable",
      "type": "function"
    },
    {
      "inputs": [
        {
          "internalType": "uint256",
          "name": "tokenId",
          "type": "uint256"
        }
      ],
      "name": "getApproved",
      "outputs": [
        {
          "internalType": "address",
          "name": "",
          "type": "address"
        }
      ],
      "stateMutability": "view",
      "type": "function"
    },
    {
      "inputs": [],
      "name": "getCollectables",
      "outputs": [
        {
          "components": [
            {
              "internalType": "uint256",
              "name": "tokenId",
              "type": "uint256"
            },
            {
              "internalType": "address payable",
              "name": "seller",
              "type": "address"
            },
            {
              "internalType": "address payable",
              "name": "owner",
              "type": "address"
            },
            {
              "internalType": "uint256",
              "name": "price",
              "type": "uint256"
            },
            {
              "internalType": "address[]",
              "name": "subscribers",
              "type": "address[]"
            },
            {
              "internalType": "uint256",
              "name": "likes",
              "type": "uint256"
            },
            {
              "internalType": "string",
              "name": "title",
              "type": "string"
            },
            {
              "internalType": "string",
              "name": "description",
              "type": "string"
            },
            {
              "internalType": "string",
              "name": "tokenUri",
              "type": "string"
            }
          ],
          "internalType": "struct NftMarketplace.nftStruct[]",
          "name": "",
          "type": "tuple[]"
        }
      ],
      "stateMutability": "view",
      "type": "function"
    },
    {
      "inputs": [
        {
          "internalType": "uint256",
          "name": "_tokenId",
          "type": "uint256"
        }
      ],
      "name": "getIndividualNFT",
      "outputs": [
        {
          "components": [
            {
              "internalType": "uint256",
              "name": "tokenId",
              "type": "uint256"
            },
            {
              "internalType": "address payable",
              "name": "seller",
              "type": "address"
            },
            {
              "internalType": "address payable",
              "name": "owner",
              "type": "address"
            },
            {
              "internalType": "uint256",
              "name": "price",
              "type": "uint256"
            },
            {
              "internalType": "address[]",
              "name": "subscribers",
              "type": "address[]"
            },
            {
              "internalType": "uint256",
              "name": "likes",
              "type": "uint256"
            },
            {
              "internalType": "string",
              "name": "title",
              "type": "string"
            },
            {
              "internalType": "string",
              "name": "description",
              "type": "string"
            },
            {
              "internalType": "string",
              "name": "tokenUri",
              "type": "string"
            }
          ],
          "internalType": "struct NftMarketplace.nftStruct",
          "name": "",
          "type": "tuple"
        }
      ],
      "stateMutability": "view",
      "type": "function"
    },
    {
      "inputs": [],
      "name": "getNfts",
      "outputs": [
        {
          "components": [
            {
              "internalType": "uint256",
              "name": "tokenId",
              "type": "uint256"
            },
            {
              "internalType": "address payable",
              "name": "seller",
              "type": "address"
            },
            {
              "internalType": "address payable",
              "name": "owner",
              "type": "address"
            },
            {
              "internalType": "uint256",
              "name": "price",
              "type": "uint256"
            },
            {
              "internalType": "address[]",
              "name": "subscribers",
              "type": "address[]"
            },
            {
              "internalType": "uint256",
              "name": "likes",
              "type": "uint256"
            },
            {
              "internalType": "string",
              "name": "title",
              "type": "string"
            },
            {
              "internalType": "string",
              "name": "description",
              "type": "string"
            },
            {
              "internalType": "string",
              "name": "tokenUri",
              "type": "string"
            }
          ],
          "internalType": "struct NftMarketplace.nftStruct[]",
          "name": "",
          "type": "tuple[]"
        }
      ],
      "stateMutability": "view",
      "type": "function"
    },
    {
      "inputs": [],
      "name": "getNumberOfUsers",
      "outputs": [
        {
          "internalType": "uint256",
          "name": "",
          "type": "uint256"
        }
      ],
      "stateMutability": "view",
      "type": "function"
    },
    {
      "inputs": [],
      "name": "getSubscriptions",
      "outputs": [
        {
          "components": [
            {
              "internalType": "uint256",
              "name": "tokenId",
              "type": "uint256"
            },
            {
              "internalType": "address payable",
              "name": "seller",
              "type": "address"
            },
            {
              "internalType": "address payable",
              "name": "owner",
              "type": "address"
            },
            {
              "internalType": "uint256",
              "name": "price",
              "type": "uint256"
            },
            {
              "internalType": "address[]",
              "name": "subscribers",
              "type": "address[]"
            },
            {
              "internalType": "uint256",
              "name": "likes",
              "type": "uint256"
            },
            {
              "internalType": "string",
              "name": "title",
              "type": "string"
            },
            {
              "internalType": "string",
              "name": "description",
              "type": "string"
            },
            {
              "internalType": "string",
              "name": "tokenUri",
              "type": "string"
            }
          ],
          "internalType": "struct NftMarketplace.nftStruct[]",
          "name": "",
          "type": "tuple[]"
        }
      ],
      "stateMutability": "nonpayable",
      "type": "function"
    },
    {
      "inputs": [
        {
          "internalType": "address",
          "name": "owner",
          "type": "address"
        },
        {
          "internalType": "address",
          "name": "operator",
          "type": "address"
        }
      ],
      "name": "isApprovedForAll",
      "outputs": [
        {
          "internalType": "bool",
          "name": "",
          "type": "bool"
        }
      ],
      "stateMutability": "view",
      "type": "function"
    },
    {
      "inputs": [
        {
          "internalType": "uint256",
          "name": "tokenId",
          "type": "uint256"
        }
      ],
      "name": "isRenewable",
      "outputs": [
        {
          "internalType": "bool",
          "name": "",
          "type": "bool"
        }
      ],
      "stateMutability": "pure",
      "type": "function"
    },
    {
      "inputs": [
        {
          "internalType": "uint256",
          "name": "_tokenId",
          "type": "uint256"
        }
      ],
      "name": "likeSubscription",
      "outputs": [],
      "stateMutability": "nonpayable",
      "type": "function"
    },
    {
      "inputs": [],
      "name": "name",
      "outputs": [
        {
          "internalType": "string",
          "name": "",
          "type": "string"
        }
      ],
      "stateMutability": "view",
      "type": "function"
    },
    {
      "inputs": [
        {
          "internalType": "uint256",
          "name": "",
          "type": "uint256"
        }
      ],
      "name": "nftSubscriptions",
      "outputs": [
        {
          "internalType": "uint256",
          "name": "tokenId",
          "type": "uint256"
        },
        {
          "internalType": "address payable",
          "name": "seller",
          "type": "address"
        },
        {
          "internalType": "address payable",
          "name": "owner",
          "type": "address"
        },
        {
          "internalType": "uint256",
          "name": "price",
          "type": "uint256"
        },
        {
          "internalType": "uint256",
          "name": "likes",
          "type": "uint256"
        },
        {
          "internalType": "string",
          "name": "title",
          "type": "string"
        },
        {
          "internalType": "string",
          "name": "description",
          "type": "string"
        },
        {
          "internalType": "string",
          "name": "tokenUri",
          "type": "string"
        }
      ],
      "stateMutability": "view",
      "type": "function"
    },
    {
      "inputs": [
        {
          "internalType": "uint256",
          "name": "tokenId",
          "type": "uint256"
        }
      ],
      "name": "ownerOf",
      "outputs": [
        {
          "internalType": "address",
          "name": "",
          "type": "address"
        }
      ],
      "stateMutability": "view",
      "type": "function"
    },
    {
      "inputs": [
        {
          "internalType": "uint256",
          "name": "",
          "type": "uint256"
        }
      ],
      "name": "profiles",
      "outputs": [
        {
          "internalType": "address",
          "name": "self",
          "type": "address"
        }
      ],
      "stateMutability": "view",
      "type": "function"
    },
    {
      "inputs": [
        {
          "internalType": "uint256",
          "name": "_tokenId",
          "type": "uint256"
        },
        {
          "internalType": "uint64",
          "name": "duration",
          "type": "uint64"
        }
      ],
      "name": "renewSubscription",
      "outputs": [],
      "stateMutability": "payable",
      "type": "function"
    },
    {
      "inputs": [
        {
          "internalType": "address",
          "name": "from",
          "type": "address"
        },
        {
          "internalType": "address",
          "name": "to",
          "type": "address"
        },
        {
          "internalType": "uint256",
          "name": "tokenId",
          "type": "uint256"
        }
      ],
      "name": "safeTransferFrom",
      "outputs": [],
      "stateMutability": "nonpayable",
      "type": "function"
    },
    {
      "inputs": [
        {
          "internalType": "address",
          "name": "from",
          "type": "address"
        },
        {
          "internalType": "address",
          "name": "to",
          "type": "address"
        },
        {
          "internalType": "uint256",
          "name": "tokenId",
          "type": "uint256"
        },
        {
          "internalType": "bytes",
          "name": "data",
          "type": "bytes"
        }
      ],
      "name": "safeTransferFrom",
      "outputs": [],
      "stateMutability": "nonpayable",
      "type": "function"
    },
    {
      "inputs": [
        {
          "internalType": "uint256",
          "name": "_tokenId",
          "type": "uint256"
        }
      ],
      "name": "sellSubscription",
      "outputs": [
        {
          "internalType": "uint256",
          "name": "",
          "type": "uint256"
        }
      ],
      "stateMutability": "payable",
      "type": "function"
    },
    {
      "inputs": [
        {
          "internalType": "address",
          "name": "operator",
          "type": "address"
        },
        {
          "internalType": "bool",
          "name": "approved",
          "type": "bool"
        }
      ],
      "name": "setApprovalForAll",
      "outputs": [],
      "stateMutability": "nonpayable",
      "type": "function"
    },
    {
      "inputs": [
        {
          "internalType": "bytes4",
          "name": "interfaceId",
          "type": "bytes4"
        }
      ],
      "name": "supportsInterface",
      "outputs": [
        {
          "internalType": "bool",
          "name": "",
          "type": "bool"
        }
      ],
      "stateMutability": "view",
      "type": "function"
    },
    {
      "inputs": [],
      "name": "symbol",
      "outputs": [
        {
          "internalType": "string",
          "name": "",
          "type": "string"
        }
      ],
      "stateMutability": "view",
      "type": "function"
    },
    {
      "inputs": [
        {
          "internalType": "uint256",
          "name": "tokenId",
          "type": "uint256"
        }
      ],
      "name": "tokenURI",
      "outputs": [
        {
          "internalType": "string",
          "name": "",
          "type": "string"
        }
      ],
      "stateMutability": "view",
      "type": "function"
    },
    {
      "inputs": [
        {
          "internalType": "address",
          "name": "from",
          "type": "address"
        },
        {
          "internalType": "address",
          "name": "to",
          "type": "address"
        },
        {
          "internalType": "uint256",
          "name": "tokenId",
          "type": "uint256"
        }
      ],
      "name": "transferFrom",
      "outputs": [],
      "stateMutability": "nonpayable",
      "type": "function"
    },
    {
      "inputs": [
        {
          "internalType": "address",
          "name": "_account",
          "type": "address"
        }
      ],
      "name": "unfollowProfile",
      "outputs": [],
      "stateMutability": "view",
      "type": "function"
    },
    {
      "inputs": [
        {
          "internalType": "uint256",
          "name": "_tokenId",
          "type": "uint256"
        }
      ],
      "name": "unlikeSubscription",
      "outputs": [],
      "stateMutability": "nonpayable",
      "type": "function"
    }
  ],
  "bytecode": "0x60806040523480156200001157600080fd5b506040518060400160405280601981526020017f4e4654204d6167617a696e6520537562736372697074696f6e000000000000008152506040518060400160405280600381526020017f4d4147000000000000000000000000000000000000000000000000000000000081525081600190816200008f919062000368565b508060029081620000a1919062000368565b505050620000bb6008620000d860201b62002c8b1760201c565b620000d2600a620000d860201b62002c8b1760201c565b6200044f565b6001816000016000828254019250508190555050565b600081519050919050565b7f4e487b7100000000000000000000000000000000000000000000000000000000600052604160045260246000fd5b7f4e487b7100000000000000000000000000000000000000000000000000000000600052602260045260246000fd5b600060028204905060018216806200017057607f821691505b60208210810362000186576200018562000128565b5b50919050565b60008190508160005260206000209050919050565b60006020601f8301049050919050565b600082821b905092915050565b600060088302620001f07fffffffffffffffffffffffffffffffffffffffffffffffffffffffffffffffff82620001b1565b620001fc8683620001b1565b95508019841693508086168417925050509392505050565b6000819050919050565b6000819050919050565b600062000249620002436200023d8462000214565b6200021e565b62000214565b9050919050565b6000819050919050565b620002658362000228565b6200027d620002748262000250565b848454620001be565b825550505050565b600090565b6200029462000285565b620002a18184846200025a565b505050565b5b81811015620002c957620002bd6000826200028a565b600181019050620002a7565b5050565b601f8211156200031857620002e2816200018c565b620002ed84620001a1565b81016020851015620002fd578190505b620003156200030c85620001a1565b830182620002a6565b50505b505050565b600082821c905092915050565b60006200033d600019846008026200031d565b1980831691505092915050565b60006200035883836200032a565b9150826002028217905092915050565b6200037382620000ee565b67ffffffffffffffff8111156200038f576200038e620000f9565b5b6200039b825462000157565b620003a8828285620002cd565b600060209050601f831160018114620003e05760008415620003cb578287015190505b620003d785826200034a565b86555062000447565b601f198416620003f0866200018c565b60005b828110156200041a57848901518255600182019150602085019450602081019050620003f3565b868310156200043a578489015162000436601f8916826200032a565b8355505b6001600288020188555050505b505050505050565b615d13806200045f6000396000f3fe6080604052600436106101e35760003560e01c806370a0823111610102578063baef978711610095578063c9df908111610064578063c9df90811461070b578063cde317af14610734578063d8cb55e314610771578063e985e9c51461079c576101e3565b8063baef978714610638578063c36fe3d614610668578063c7e7709d146106a5578063c87b56dd146106ce576101e3565b806384af399f116100d157806384af399f1461058b57806395d89b41146105bb578063a22cb465146105e6578063b88d4fde1461060f576101e3565b806370a08231146104cc57806374bde7ea146105095780637685631914610532578063776ce8681461056f576101e3565b8063212350831161017a57806342842e0e1161014957806342842e0e14610412578063497a98501461043b5780634d009288146104645780636352211e1461048f576101e3565b8063212350831461037957806323b872dd146103955780633725f2d3146103be5780633b47a9ac146103e7576101e3565b806308ffc4a9116101b657806308ffc4a9146102d1578063095ea7b3146102fc57806317c95709146103255780631c62094c14610362576101e3565b8063016ff777146101e857806301ffc9a71461022c57806306fdde0314610269578063081812fc14610294575b600080fd5b3480156101f457600080fd5b5061020f600480360381019061020a91906140fe565b6107d9565b60405161022398979695949392919061420b565b60405180910390f35b34801561023857600080fd5b50610253600480360381019061024e91906142f6565b610a09565b604051610260919061433e565b60405180910390f35b34801561027557600080fd5b5061027e610aeb565b60405161028b9190614359565b60405180910390f35b3480156102a057600080fd5b506102bb60048036038101906102b691906140fe565b610b7d565b6040516102c8919061439c565b60405180910390f35b3480156102dd57600080fd5b506102e6610bc3565b6040516102f39190614679565b60405180910390f35b34801561030857600080fd5b50610323600480360381019061031e91906146c7565b611065565b005b34801561033157600080fd5b5061034c600480360381019061034791906140fe565b61117c565b604051610359919061472a565b60405180910390f35b34801561036e57600080fd5b506103776111ac565b005b610393600480360381019061038e91906140fe565b6112b5565b005b3480156103a157600080fd5b506103bc60048036038101906103b79190614745565b61131a565b005b3480156103ca57600080fd5b506103e560048036038101906103e09190614798565b61137a565b005b3480156103f357600080fd5b506103fc611565565b6040516104099190614679565b60405180910390f35b34801561041e57600080fd5b5061043960048036038101906104349190614745565b611af1565b005b34801561044757600080fd5b50610462600480360381019061045d91906148fa565b611b11565b005b34801561047057600080fd5b50610479611b4f565b60405161048691906149a1565b60405180910390f35b34801561049b57600080fd5b506104b660048036038101906104b191906140fe565b611b65565b6040516104c3919061439c565b60405180910390f35b3480156104d857600080fd5b506104f360048036038101906104ee9190614798565b611beb565b60405161050091906149a1565b60405180910390f35b34801561051557600080fd5b50610530600480360381019061052b91906140fe565b611ca2565b005b34801561053e57600080fd5b50610559600480360381019061055491906140fe565b611cd3565b6040516105669190614a96565b60405180910390f35b61058960048036038101906105849190614ae4565b61200f565b005b6105a560048036038101906105a091906140fe565b61212e565b6040516105b291906149a1565b60405180910390f35b3480156105c757600080fd5b506105d0612222565b6040516105dd9190614359565b60405180910390f35b3480156105f257600080fd5b5061060d60048036038101906106089190614b50565b6122b4565b005b34801561061b57600080fd5b5061063660048036038101906106319190614c31565b6122ca565b005b610652600480360381019061064d91906140fe565b61232c565b60405161065f919061433e565b60405180910390f35b34801561067457600080fd5b5061068f600480360381019061068a91906140fe565b61242b565b60405161069c919061439c565b60405180910390f35b3480156106b157600080fd5b506106cc60048036038101906106c79190614798565b612469565b005b3480156106da57600080fd5b506106f560048036038101906106f091906140fe565b612660565b6040516107029190614359565b60405180910390f35b34801561071757600080fd5b50610732600480360381019061072d91906140fe565b612772565b005b34801561074057600080fd5b5061075b600480360381019061075691906140fe565b6127a3565b604051610768919061433e565b60405180910390f35b34801561077d57600080fd5b506107866127ae565b6040516107939190614679565b60405180910390f35b3480156107a857600080fd5b506107c360048036038101906107be9190614cb4565b612bf7565b6040516107d0919061433e565b60405180910390f35b600d81815481106107e957600080fd5b90600052602060002090600902016000915090508060000154908060010160009054906101000a900473ffffffffffffffffffffffffffffffffffffffff16908060020160009054906101000a900473ffffffffffffffffffffffffffffffffffffffff169080600301549080600501549080600601805461086a90614d23565b80601f016020809104026020016040519081016040528092919081815260200182805461089690614d23565b80156108e35780601f106108b8576101008083540402835291602001916108e3565b820191906000526020600020905b8154815290600101906020018083116108c657829003601f168201915b5050505050908060070180546108f890614d23565b80601f016020809104026020016040519081016040528092919081815260200182805461092490614d23565b80156109715780601f1061094657610100808354040283529160200191610971565b820191906000526020600020905b81548152906001019060200180831161095457829003601f168201915b50505050509080600801805461098690614d23565b80601f01602080910402602001604051908101604052809291908181526020018280546109b290614d23565b80156109ff5780601f106109d4576101008083540402835291602001916109ff565b820191906000526020600020905b8154815290600101906020018083116109e257829003601f168201915b5050505050905088565b60007f80ac58cd000000000000000000000000000000000000000000000000000000007bffffffffffffffffffffffffffffffffffffffffffffffffffffffff1916827bffffffffffffffffffffffffffffffffffffffffffffffffffffffff19161480610ad457507f5b5e139f000000000000000000000000000000000000000000000000000000007bffffffffffffffffffffffffffffffffffffffffffffffffffffffff1916827bffffffffffffffffffffffffffffffffffffffffffffffffffffffff1916145b80610ae45750610ae382612ca1565b5b9050919050565b606060018054610afa90614d23565b80601f0160208091040260200160405190810160405280929190818152602001828054610b2690614d23565b8015610b735780601f10610b4857610100808354040283529160200191610b73565b820191906000526020600020905b815481529060010190602001808311610b5657829003601f168201915b5050505050905090565b6000610b8882612d0b565b6005600083815260200190815260200160002060009054906101000a900473ffffffffffffffffffffffffffffffffffffffff169050919050565b60606000610bd16008612d56565b905060008167ffffffffffffffff811115610bef57610bee6147cf565b5b604051908082528060200260200182016040528015610c2857816020015b610c15613f43565b815260200190600190039081610c0d5790505b5090506000600190505b8281101561105c576000600b600083815260200190815260200160002060040180549050905060005b81811015611047573373ffffffffffffffffffffffffffffffffffffffff16600b60008581526020019081526020016000206004018281548110610ca257610ca1614d54565b5b9060005260206000200160009054906101000a900473ffffffffffffffffffffffffffffffffffffffff1673ffffffffffffffffffffffffffffffffffffffff160361103457600b600084815260200190815260200160002060405180610120016040529081600082015481526020016001820160009054906101000a900473ffffffffffffffffffffffffffffffffffffffff1673ffffffffffffffffffffffffffffffffffffffff1673ffffffffffffffffffffffffffffffffffffffff1681526020016002820160009054906101000a900473ffffffffffffffffffffffffffffffffffffffff1673ffffffffffffffffffffffffffffffffffffffff1673ffffffffffffffffffffffffffffffffffffffff1681526020016003820154815260200160048201805480602002602001604051908101604052809291908181526020018280548015610e4c57602002820191906000526020600020905b8160009054906101000a900473ffffffffffffffffffffffffffffffffffffffff1673ffffffffffffffffffffffffffffffffffffffff1681526020019060010190808311610e02575b5050505050815260200160058201548152602001600682018054610e6f90614d23565b80601f0160208091040260200160405190810160405280929190818152602001828054610e9b90614d23565b8015610ee85780601f10610ebd57610100808354040283529160200191610ee8565b820191906000526020600020905b815481529060010190602001808311610ecb57829003601f168201915b50505050508152602001600782018054610f0190614d23565b80601f0160208091040260200160405190810160405280929190818152602001828054610f2d90614d23565b8015610f7a5780601f10610f4f57610100808354040283529160200191610f7a565b820191906000526020600020905b815481529060010190602001808311610f5d57829003601f168201915b50505050508152602001600882018054610f9390614d23565b80601f0160208091040260200160405190810160405280929190818152602001828054610fbf90614d23565b801561100c5780601f10610fe15761010080835404028352916020019161100c565b820191906000526020600020905b815481529060010190602001808311610fef57829003601f168201915b50505050508152505084848151811061102857611027614d54565b5b60200260200101819052505b808061103f90614db2565b915050610c5b565b5050808061105490614db2565b915050610c32565b50809250505090565b600061107082611b65565b90508073ffffffffffffffffffffffffffffffffffffffff168373ffffffffffffffffffffffffffffffffffffffff16036110e0576040517f08c379a00000000000000000000000000000000000000000000000000000000081526004016110d790614e6c565b60405180910390fd5b8073ffffffffffffffffffffffffffffffffffffffff166110ff612d64565b73ffffffffffffffffffffffffffffffffffffffff16148061112e575061112d81611128612d64565b612bf7565b5b61116d576040517f08c379a000000000000000000000000000000000000000000000000000000000815260040161116490614efe565b60405180910390fd5b6111778383612d6c565b505050565b600080600083815260200190815260200160002060009054906101000a900467ffffffffffffffff169050919050565b60006111b8600a612d56565b9050600080600190505b8281101561124b573373ffffffffffffffffffffffffffffffffffffffff16600c600083815260200190815260200160002060000160009054906101000a900473ffffffffffffffffffffffffffffffffffffffff1673ffffffffffffffffffffffffffffffffffffffff160361123857600191505b808061124390614db2565b9150506111c2565b50806112a75733600c600084815260200190815260200160002060000160006101000a81548173ffffffffffffffffffffffffffffffffffffffff021916908373ffffffffffffffffffffffffffffffffffffffff1602179055505b6112b1600a612c8b565b5050565b60008082815260200190815260200160002060006101000a81549067ffffffffffffffff0219169055807f2ec2be2c4b90c2cf13ecb6751a24daed6bb741ae5ed3f7371aabf9402f6d62e8600060405161130f9190614f63565b60405180910390a250565b61132b611325612d64565b82612e25565b61136a576040517f08c379a000000000000000000000000000000000000000000000000000000000815260040161136190614ff0565b60405180910390fd5b611375838383612eba565b505050565b6000611386600a612d56565b90506000600190505b8181101561156057611472600c600083815260200190815260200160002060000160009054906101000a900473ffffffffffffffffffffffffffffffffffffffff16600c600084815260200190815260200160002060010180548060200260200160405190810160405280929190818152602001828054801561146757602002820191906000526020600020905b8160009054906101000a900473ffffffffffffffffffffffffffffffffffffffff1673ffffffffffffffffffffffffffffffffffffffff168152602001906001019080831161141d575b5050505050856131b3565b61154d600c600083815260200190815260200160002060000160009054906101000a900473ffffffffffffffffffffffffffffffffffffffff16600c600084815260200190815260200160002060020180548060200260200160405190810160405280929190818152602001828054801561154257602002820191906000526020600020905b8160009054906101000a900473ffffffffffffffffffffffffffffffffffffffff1673ffffffffffffffffffffffffffffffffffffffff16815260200190600101908083116114f8575b505050505033613295565b808061155890614db2565b91505061138f565b505050565b606060006115736008612d56565b90506000600190505b81811015611783573073ffffffffffffffffffffffffffffffffffffffff16600b600083815260200190815260200160002060020160009054906101000a900473ffffffffffffffffffffffffffffffffffffffff1673ffffffffffffffffffffffffffffffffffffffff160361177057600d600b60008381526020019081526020016000209080600181540180825580915050600190039060005260206000209060090201600090919091909150600082015481600001556001820160009054906101000a900473ffffffffffffffffffffffffffffffffffffffff168160010160006101000a81548173ffffffffffffffffffffffffffffffffffffffff021916908373ffffffffffffffffffffffffffffffffffffffff1602179055506002820160009054906101000a900473ffffffffffffffffffffffffffffffffffffffff168160020160006101000a81548173ffffffffffffffffffffffffffffffffffffffff021916908373ffffffffffffffffffffffffffffffffffffffff160217905550600382015481600301556004820181600401908054611723929190613fbb565b50600582015481600501556006820181600601908161174291906151c8565b506007820181600701908161175791906151c8565b506008820181600801908161176c91906151c8565b5050505b808061177b90614db2565b91505061157c565b50600d805480602002602001604051908101604052809291908181526020016000905b82821015611ae7578382906000526020600020906009020160405180610120016040529081600082015481526020016001820160009054906101000a900473ffffffffffffffffffffffffffffffffffffffff1673ffffffffffffffffffffffffffffffffffffffff1673ffffffffffffffffffffffffffffffffffffffff1681526020016002820160009054906101000a900473ffffffffffffffffffffffffffffffffffffffff1673ffffffffffffffffffffffffffffffffffffffff1673ffffffffffffffffffffffffffffffffffffffff168152602001600382015481526020016004820180548060200260200160405190810160405280929190818152602001828054801561190f57602002820191906000526020600020905b8160009054906101000a900473ffffffffffffffffffffffffffffffffffffffff1673ffffffffffffffffffffffffffffffffffffffff16815260200190600101908083116118c5575b505050505081526020016005820154815260200160068201805461193290614d23565b80601f016020809104026020016040519081016040528092919081815260200182805461195e90614d23565b80156119ab5780601f10611980576101008083540402835291602001916119ab565b820191906000526020600020905b81548152906001019060200180831161198e57829003601f168201915b505050505081526020016007820180546119c490614d23565b80601f01602080910402602001604051908101604052809291908181526020018280546119f090614d23565b8015611a3d5780601f10611a1257610100808354040283529160200191611a3d565b820191906000526020600020905b815481529060010190602001808311611a2057829003601f168201915b50505050508152602001600882018054611a5690614d23565b80601f0160208091040260200160405190810160405280929190818152602001828054611a8290614d23565b8015611acf5780601f10611aa457610100808354040283529160200191611acf565b820191906000526020600020905b815481529060010190602001808311611ab257829003601f168201915b505050505081525050815260200190600101906117a6565b5050505091505090565b611b0c838383604051806020016040528060008152506122ca565b505050565b6000611b1d6008612d56565b9050611b293382613377565b611b338185613594565b611b3f81848487613601565b611b496008612c8b565b50505050565b600080611b5c600a612d56565b90508091505090565b600080611b71836138a7565b9050600073ffffffffffffffffffffffffffffffffffffffff168173ffffffffffffffffffffffffffffffffffffffff1603611be2576040517f08c379a0000000000000000000000000000000000000000000000000000000008152600401611bd9906152fc565b60405180910390fd5b80915050919050565b60008073ffffffffffffffffffffffffffffffffffffffff168273ffffffffffffffffffffffffffffffffffffffff1603611c5b576040517f08c379a0000000000000000000000000000000000000000000000000000000008152600401611c529061538e565b60405180910390fd5b600460008373ffffffffffffffffffffffffffffffffffffffff1673ffffffffffffffffffffffffffffffffffffffff168152602001908152602001600020549050919050565b6001600b60008381526020019081526020016000206005016000828254611cc991906153ae565b9250508190555050565b611cdb613f43565b600b600083815260200190815260200160002060405180610120016040529081600082015481526020016001820160009054906101000a900473ffffffffffffffffffffffffffffffffffffffff1673ffffffffffffffffffffffffffffffffffffffff1673ffffffffffffffffffffffffffffffffffffffff1681526020016002820160009054906101000a900473ffffffffffffffffffffffffffffffffffffffff1673ffffffffffffffffffffffffffffffffffffffff1673ffffffffffffffffffffffffffffffffffffffff1681526020016003820154815260200160048201805480602002602001604051908101604052809291908181526020018280548015611e3f57602002820191906000526020600020905b8160009054906101000a900473ffffffffffffffffffffffffffffffffffffffff1673ffffffffffffffffffffffffffffffffffffffff1681526020019060010190808311611df5575b5050505050815260200160058201548152602001600682018054611e6290614d23565b80601f0160208091040260200160405190810160405280929190818152602001828054611e8e90614d23565b8015611edb5780601f10611eb057610100808354040283529160200191611edb565b820191906000526020600020905b815481529060010190602001808311611ebe57829003601f168201915b50505050508152602001600782018054611ef490614d23565b80601f0160208091040260200160405190810160405280929190818152602001828054611f2090614d23565b8015611f6d5780601f10611f4257610100808354040283529160200191611f6d565b820191906000526020600020905b815481529060010190602001808311611f5057829003601f168201915b50505050508152602001600882018054611f8690614d23565b80601f0160208091040260200160405190810160405280929190818152602001828054611fb290614d23565b8015611fff5780601f10611fd457610100808354040283529160200191611fff565b820191906000526020600020905b815481529060010190602001808311611fe257829003601f168201915b5050505050815250509050919050565b600080600084815260200190815260200160002060009054906101000a900467ffffffffffffffff1690506000808267ffffffffffffffff160361206057824261205991906153e2565b90506120b7565b612069846127a3565b6120a8576040517f08c379a000000000000000000000000000000000000000000000000000000000815260040161209f9061546a565b60405180910390fd5b82826120b491906153e2565b90505b8060008086815260200190815260200160002060006101000a81548167ffffffffffffffff021916908367ffffffffffffffff160217905550837f2ec2be2c4b90c2cf13ecb6751a24daed6bb741ae5ed3f7371aabf9402f6d62e882604051612120919061472a565b60405180910390a250505050565b600061213a3383612e25565b612179576040517f08c379a0000000000000000000000000000000000000000000000000000000008152600401612170906154d6565b60405180910390fd5b612184333084612eba565b670de0b6b3a7640000346121989190615525565b600b60008481526020019081526020016000206003018190555030600b600084815260200190815260200160002060020160006101000a81548173ffffffffffffffffffffffffffffffffffffffff021916908373ffffffffffffffffffffffffffffffffffffffff1602179055506122116009612c8b565b61221b6009612d56565b9050919050565b60606002805461223190614d23565b80601f016020809104026020016040519081016040528092919081815260200182805461225d90614d23565b80156122aa5780601f1061227f576101008083540402835291602001916122aa565b820191906000526020600020905b81548152906001019060200180831161228d57829003601f168201915b5050505050905090565b6122c66122bf612d64565b83836138e4565b5050565b6122db6122d5612d64565b83612e25565b61231a576040517f08c379a000000000000000000000000000000000000000000000000000000000815260040161231190614ff0565b60405180910390fd5b61232684848484613a50565b50505050565b6000600b600083815260200190815260200160002060010160009054906101000a900473ffffffffffffffffffffffffffffffffffffffff1673ffffffffffffffffffffffffffffffffffffffff166108fc349081150290604051600060405180830381858888f193505050501580156123aa573d6000803e3d6000fd5b50600b6000838152602001908152602001600020600401339080600181540180825580915050600190039060005260206000200160009091909190916101000a81548173ffffffffffffffffffffffffffffffffffffffff021916908373ffffffffffffffffffffffffffffffffffffffff16021790555060019050919050565b600c6020528060005260406000206000915090508060000160009054906101000a900473ffffffffffffffffffffffffffffffffffffffff16905081565b6000612475600a612d56565b90506000600190505b8181101561265b573373ffffffffffffffffffffffffffffffffffffffff16600c600083815260200190815260200160002060000160009054906101000a900473ffffffffffffffffffffffffffffffffffffffff1673ffffffffffffffffffffffffffffffffffffffff160361256757600c6000828152602001908152602001600020600201839080600181540180825580915050600190039060005260206000200160009091909190916101000a81548173ffffffffffffffffffffffffffffffffffffffff021916908373ffffffffffffffffffffffffffffffffffffffff1602179055505b8273ffffffffffffffffffffffffffffffffffffffff16600c600083815260200190815260200160002060000160009054906101000a900473ffffffffffffffffffffffffffffffffffffffff1673ffffffffffffffffffffffffffffffffffffffff160361264857600c6000828152602001908152602001600020600101339080600181540180825580915050600190039060005260206000200160009091909190916101000a81548173ffffffffffffffffffffffffffffffffffffffff021916908373ffffffffffffffffffffffffffffffffffffffff1602179055505b808061265390614db2565b91505061247e565b505050565b606061266b82612d0b565b600060076000848152602001908152602001600020805461268b90614d23565b80601f01602080910402602001604051908101604052809291908181526020018280546126b790614d23565b80156127045780601f106126d957610100808354040283529160200191612704565b820191906000526020600020905b8154815290600101906020018083116126e757829003601f168201915b505050505090506000612715613aac565b9050600081510361272a57819250505061276d565b60008251111561275f578082604051602001612747929190615592565b6040516020818303038152906040529250505061276d565b61276884613ac3565b925050505b919050565b6001600b6000838152602001908152602001600020600501600082825461279991906155b6565b9250508190555050565b600060019050919050565b606060006127bc6008612d56565b905060008167ffffffffffffffff8111156127da576127d96147cf565b5b60405190808252806020026020018201604052801561281357816020015b612800613f43565b8152602001906001900390816127f85790505b5090506000600190505b82811015612bee573373ffffffffffffffffffffffffffffffffffffffff16600b600083815260200190815260200160002060010160009054906101000a900473ffffffffffffffffffffffffffffffffffffffff1673ffffffffffffffffffffffffffffffffffffffff1603612bdb57600b60006001815260200190815260200160002060405180610120016040529081600082015481526020016001820160009054906101000a900473ffffffffffffffffffffffffffffffffffffffff1673ffffffffffffffffffffffffffffffffffffffff1673ffffffffffffffffffffffffffffffffffffffff1681526020016002820160009054906101000a900473ffffffffffffffffffffffffffffffffffffffff1673ffffffffffffffffffffffffffffffffffffffff1673ffffffffffffffffffffffffffffffffffffffff16815260200160038201548152602001600482018054806020026020016040519081016040528092919081815260200182805480156129f357602002820191906000526020600020905b8160009054906101000a900473ffffffffffffffffffffffffffffffffffffffff1673ffffffffffffffffffffffffffffffffffffffff16815260200190600101908083116129a9575b5050505050815260200160058201548152602001600682018054612a1690614d23565b80601f0160208091040260200160405190810160405280929190818152602001828054612a4290614d23565b8015612a8f5780601f10612a6457610100808354040283529160200191612a8f565b820191906000526020600020905b815481529060010190602001808311612a7257829003601f168201915b50505050508152602001600782018054612aa890614d23565b80601f0160208091040260200160405190810160405280929190818152602001828054612ad490614d23565b8015612b215780601f10612af657610100808354040283529160200191612b21565b820191906000526020600020905b815481529060010190602001808311612b0457829003601f168201915b50505050508152602001600882018054612b3a90614d23565b80601f0160208091040260200160405190810160405280929190818152602001828054612b6690614d23565b8015612bb35780601f10612b8857610100808354040283529160200191612bb3565b820191906000526020600020905b815481529060010190602001808311612b9657829003601f168201915b505050505081525050828281518110612bcf57612bce614d54565b5b60200260200101819052505b8080612be690614db2565b91505061281d565b50809250505090565b6000600660008473ffffffffffffffffffffffffffffffffffffffff1673ffffffffffffffffffffffffffffffffffffffff16815260200190815260200160002060008373ffffffffffffffffffffffffffffffffffffffff1673ffffffffffffffffffffffffffffffffffffffff16815260200190815260200160002060009054906101000a900460ff16905092915050565b6001816000016000828254019250508190555050565b60007f01ffc9a7000000000000000000000000000000000000000000000000000000007bffffffffffffffffffffffffffffffffffffffffffffffffffffffff1916827bffffffffffffffffffffffffffffffffffffffffffffffffffffffff1916149050919050565b612d1481613b2b565b612d53576040517f08c379a0000000000000000000000000000000000000000000000000000000008152600401612d4a906152fc565b60405180910390fd5b50565b600081600001549050919050565b600033905090565b816005600083815260200190815260200160002060006101000a81548173ffffffffffffffffffffffffffffffffffffffff021916908373ffffffffffffffffffffffffffffffffffffffff160217905550808273ffffffffffffffffffffffffffffffffffffffff16612ddf83611b65565b73ffffffffffffffffffffffffffffffffffffffff167f8c5be1e5ebec7d5bd14f71427d1e84f3dd0314c0f7b2291e5b200ac8c7c3b92560405160405180910390a45050565b600080612e3183611b65565b90508073ffffffffffffffffffffffffffffffffffffffff168473ffffffffffffffffffffffffffffffffffffffff161480612e735750612e728185612bf7565b5b80612eb157508373ffffffffffffffffffffffffffffffffffffffff16612e9984610b7d565b73ffffffffffffffffffffffffffffffffffffffff16145b91505092915050565b8273ffffffffffffffffffffffffffffffffffffffff16612eda82611b65565b73ffffffffffffffffffffffffffffffffffffffff1614612f30576040517f08c379a0000000000000000000000000000000000000000000000000000000008152600401612f279061565c565b60405180910390fd5b600073ffffffffffffffffffffffffffffffffffffffff168273ffffffffffffffffffffffffffffffffffffffff1603612f9f576040517f08c379a0000000000000000000000000000000000000000000000000000000008152600401612f96906156ee565b60405180910390fd5b612fac8383836001613b6c565b8273ffffffffffffffffffffffffffffffffffffffff16612fcc82611b65565b73ffffffffffffffffffffffffffffffffffffffff1614613022576040517f08c379a00000000000000000000000000000000000000000000000000000000081526004016130199061565c565b60405180910390fd5b6005600082815260200190815260200160002060006101000a81549073ffffffffffffffffffffffffffffffffffffffff02191690556001600460008573ffffffffffffffffffffffffffffffffffffffff1673ffffffffffffffffffffffffffffffffffffffff168152602001908152602001600020600082825403925050819055506001600460008473ffffffffffffffffffffffffffffffffffffffff1673ffffffffffffffffffffffffffffffffffffffff16815260200190815260200160002060008282540192505081905550816003600083815260200190815260200160002060006101000a81548173ffffffffffffffffffffffffffffffffffffffff021916908373ffffffffffffffffffffffffffffffffffffffff160217905550808273ffffffffffffffffffffffffffffffffffffffff168473ffffffffffffffffffffffffffffffffffffffff167fddf252ad1be2c89b69c2b068fc378daa952ba7f163c4a11628f55a4df523b3ef60405160405180910390a46131ae8383836001613b72565b505050565b8073ffffffffffffffffffffffffffffffffffffffff168373ffffffffffffffffffffffffffffffffffffffff160361329057600082905060005b815181101561328d573373ffffffffffffffffffffffffffffffffffffffff1682828151811061322157613220614d54565b5b602002602001015173ffffffffffffffffffffffffffffffffffffffff160361327a5781818151811061325757613256614d54565b5b60200260200101600073ffffffffffffffffffffffffffffffffffffffff168152505b808061328590614db2565b9150506131ee565b50505b505050565b8073ffffffffffffffffffffffffffffffffffffffff168373ffffffffffffffffffffffffffffffffffffffff160361337257600082905060005b815181101561336f578273ffffffffffffffffffffffffffffffffffffffff1682828151811061330357613302614d54565b5b602002602001015173ffffffffffffffffffffffffffffffffffffffff160361335c5781818151811061333957613338614d54565b5b60200260200101600073ffffffffffffffffffffffffffffffffffffffff168152505b808061336790614db2565b9150506132d0565b50505b505050565b600073ffffffffffffffffffffffffffffffffffffffff168273ffffffffffffffffffffffffffffffffffffffff16036133e6576040517f08c379a00000000000000000000000000000000000000000000000000000000081526004016133dd9061575a565b60405180910390fd5b6133ef81613b2b565b1561342f576040517f08c379a0000000000000000000000000000000000000000000000000000000008152600401613426906157c6565b60405180910390fd5b61343d600083836001613b6c565b61344681613b2b565b15613486576040517f08c379a000000000000000000000000000000000000000000000000000000000815260040161347d906157c6565b60405180910390fd5b6001600460008473ffffffffffffffffffffffffffffffffffffffff1673ffffffffffffffffffffffffffffffffffffffff16815260200190815260200160002060008282540192505081905550816003600083815260200190815260200160002060006101000a81548173ffffffffffffffffffffffffffffffffffffffff021916908373ffffffffffffffffffffffffffffffffffffffff160217905550808273ffffffffffffffffffffffffffffffffffffffff16600073ffffffffffffffffffffffffffffffffffffffff167fddf252ad1be2c89b69c2b068fc378daa952ba7f163c4a11628f55a4df523b3ef60405160405180910390a4613590600083836001613b72565b5050565b61359d82613b2b565b6135dc576040517f08c379a00000000000000000000000000000000000000000000000000000000081526004016135d390615858565b60405180910390fd5b806007600084815260200190815260200160002090816135fc9190615878565b505050565b6000600b600086815260200190815260200160002060040180548060200260200160405190810160405280929190818152602001828054801561369957602002820191906000526020600020905b8160009054906101000a900473ffffffffffffffffffffffffffffffffffffffff1673ffffffffffffffffffffffffffffffffffffffff168152602001906001019080831161364f575b505050505090506040518061012001604052808681526020013373ffffffffffffffffffffffffffffffffffffffff1681526020013373ffffffffffffffffffffffffffffffffffffffff168152602001600081526020018281526020016001815260200185815260200184815260200183815250600b60008781526020019081526020016000206000820151816000015560208201518160010160006101000a81548173ffffffffffffffffffffffffffffffffffffffff021916908373ffffffffffffffffffffffffffffffffffffffff16021790555060408201518160020160006101000a81548173ffffffffffffffffffffffffffffffffffffffff021916908373ffffffffffffffffffffffffffffffffffffffff1602179055506060820151816003015560808201518160040190805190602001906137df92919061400d565b5060a0820151816005015560c08201518160060190816137ff9190615878565b5060e08201518160070190816138159190615878565b5061010082015181600801908161382c9190615878565b50905050847f6b0636364e6bb3c1836823c4035fa96c342686af76b1ec221f6fec7b83fc272033336000600b60008b8152602001908152602001600020600401600b60008c8152602001908152602001600020600501548a8a6040516138989796959493929190615a78565b60405180910390a25050505050565b60006003600083815260200190815260200160002060009054906101000a900473ffffffffffffffffffffffffffffffffffffffff169050919050565b8173ffffffffffffffffffffffffffffffffffffffff168373ffffffffffffffffffffffffffffffffffffffff1603613952576040517f08c379a000000000000000000000000000000000000000000000000000000000815260040161394990615b48565b60405180910390fd5b80600660008573ffffffffffffffffffffffffffffffffffffffff1673ffffffffffffffffffffffffffffffffffffffff16815260200190815260200160002060008473ffffffffffffffffffffffffffffffffffffffff1673ffffffffffffffffffffffffffffffffffffffff16815260200190815260200160002060006101000a81548160ff0219169083151502179055508173ffffffffffffffffffffffffffffffffffffffff168373ffffffffffffffffffffffffffffffffffffffff167f17307eab39ab6107e8899845ad3d59bd9653f200f220920489ca2b5937696c3183604051613a43919061433e565b60405180910390a3505050565b613a5b848484612eba565b613a6784848484613b78565b613aa6576040517f08c379a0000000000000000000000000000000000000000000000000000000008152600401613a9d90615bda565b60405180910390fd5b50505050565b606060405180602001604052806000815250905090565b6060613ace82612d0b565b6000613ad8613aac565b90506000815111613af85760405180602001604052806000815250613b23565b80613b0284613cff565b604051602001613b13929190615592565b6040516020818303038152906040525b915050919050565b60008073ffffffffffffffffffffffffffffffffffffffff16613b4d836138a7565b73ffffffffffffffffffffffffffffffffffffffff1614159050919050565b50505050565b50505050565b6000613b998473ffffffffffffffffffffffffffffffffffffffff16613dcd565b15613cf2578373ffffffffffffffffffffffffffffffffffffffff1663150b7a02613bc2612d64565b8786866040518563ffffffff1660e01b8152600401613be49493929190615c4f565b6020604051808303816000875af1925050508015613c2057506040513d601f19601f82011682018060405250810190613c1d9190615cb0565b60015b613ca2573d8060008114613c50576040519150601f19603f3d011682016040523d82523d6000602084013e613c55565b606091505b506000815103613c9a576040517f08c379a0000000000000000000000000000000000000000000000000000000008152600401613c9190615bda565b60405180910390fd5b805181602001fd5b63150b7a0260e01b7bffffffffffffffffffffffffffffffffffffffffffffffffffffffff1916817bffffffffffffffffffffffffffffffffffffffffffffffffffffffff191614915050613cf7565b600190505b949350505050565b606060006001613d0e84613df0565b01905060008167ffffffffffffffff811115613d2d57613d2c6147cf565b5b6040519080825280601f01601f191660200182016040528015613d5f5781602001600182028036833780820191505090505b509050600082602001820190505b600115613dc2578080600190039150507f3031323334353637383961626364656600000000000000000000000000000000600a86061a8153600a8581613db657613db56154f6565b5b04945060008503613d6d575b819350505050919050565b6000808273ffffffffffffffffffffffffffffffffffffffff163b119050919050565b600080600090507a184f03e93ff9f4daa797ed6e38ed64bf6a1f0100000000000000008310613e4e577a184f03e93ff9f4daa797ed6e38ed64bf6a1f0100000000000000008381613e4457613e436154f6565b5b0492506040810190505b6d04ee2d6d415b85acef81000000008310613e8b576d04ee2d6d415b85acef81000000008381613e8157613e806154f6565b5b0492506020810190505b662386f26fc100008310613eba57662386f26fc100008381613eb057613eaf6154f6565b5b0492506010810190505b6305f5e1008310613ee3576305f5e1008381613ed957613ed86154f6565b5b0492506008810190505b6127108310613f08576127108381613efe57613efd6154f6565b5b0492506004810190505b60648310613f2b5760648381613f2157613f206154f6565b5b0492506002810190505b600a8310613f3a576001810190505b80915050919050565b60405180610120016040528060008152602001600073ffffffffffffffffffffffffffffffffffffffff168152602001600073ffffffffffffffffffffffffffffffffffffffff1681526020016000815260200160608152602001600081526020016060815260200160608152602001606081525090565b828054828255906000526020600020908101928215613ffc5760005260206000209182015b82811115613ffb578254825591600101919060010190613fe0565b5b5090506140099190614097565b5090565b828054828255906000526020600020908101928215614086579160200282015b828111156140855782518260006101000a81548173ffffffffffffffffffffffffffffffffffffffff021916908373ffffffffffffffffffffffffffffffffffffffff1602179055509160200191906001019061402d565b5b5090506140939190614097565b5090565b5b808211156140b0576000816000905550600101614098565b5090565b6000604051905090565b600080fd5b600080fd5b6000819050919050565b6140db816140c8565b81146140e657600080fd5b50565b6000813590506140f8816140d2565b92915050565b600060208284031215614114576141136140be565b5b6000614122848285016140e9565b91505092915050565b614134816140c8565b82525050565b600073ffffffffffffffffffffffffffffffffffffffff82169050919050565b60006141658261413a565b9050919050565b6141758161415a565b82525050565b600081519050919050565b600082825260208201905092915050565b60005b838110156141b557808201518184015260208101905061419a565b60008484015250505050565b6000601f19601f8301169050919050565b60006141dd8261417b565b6141e78185614186565b93506141f7818560208601614197565b614200816141c1565b840191505092915050565b600061010082019050614221600083018b61412b565b61422e602083018a61416c565b61423b604083018961416c565b614248606083018861412b565b614255608083018761412b565b81810360a083015261426781866141d2565b905081810360c083015261427b81856141d2565b905081810360e083015261428f81846141d2565b90509998505050505050505050565b60007fffffffff0000000000000000000000000000000000000000000000000000000082169050919050565b6142d38161429e565b81146142de57600080fd5b50565b6000813590506142f0816142ca565b92915050565b60006020828403121561430c5761430b6140be565b5b600061431a848285016142e1565b91505092915050565b60008115159050919050565b61433881614323565b82525050565b6000602082019050614353600083018461432f565b92915050565b6000602082019050818103600083015261437381846141d2565b905092915050565b60006143868261413a565b9050919050565b6143968161437b565b82525050565b60006020820190506143b1600083018461438d565b92915050565b600081519050919050565b600082825260208201905092915050565b6000819050602082019050919050565b6143ec816140c8565b82525050565b6143fb8161415a565b82525050565b600081519050919050565b600082825260208201905092915050565b6000819050602082019050919050565b6144368161437b565b82525050565b6000614448838361442d565b60208301905092915050565b6000602082019050919050565b600061446c82614401565b614476818561440c565b93506144818361441d565b8060005b838110156144b2578151614499888261443c565b97506144a483614454565b925050600181019050614485565b5085935050505092915050565b600082825260208201905092915050565b60006144db8261417b565b6144e581856144bf565b93506144f5818560208601614197565b6144fe816141c1565b840191505092915050565b60006101208301600083015161452260008601826143e3565b50602083015161453560208601826143f2565b50604083015161454860408601826143f2565b50606083015161455b60608601826143e3565b50608083015184820360808601526145738282614461565b91505060a083015161458860a08601826143e3565b5060c083015184820360c08601526145a082826144d0565b91505060e083015184820360e08601526145ba82826144d0565b9150506101008301518482036101008601526145d682826144d0565b9150508091505092915050565b60006145ef8383614509565b905092915050565b6000602082019050919050565b600061460f826143b7565b61461981856143c2565b93508360208202850161462b856143d3565b8060005b85811015614667578484038952815161464885826145e3565b9450614653836145f7565b925060208a0199505060018101905061462f565b50829750879550505050505092915050565b600060208201905081810360008301526146938184614604565b905092915050565b6146a48161437b565b81146146af57600080fd5b50565b6000813590506146c18161469b565b92915050565b600080604083850312156146de576146dd6140be565b5b60006146ec858286016146b2565b92505060206146fd858286016140e9565b9150509250929050565b600067ffffffffffffffff82169050919050565b61472481614707565b82525050565b600060208201905061473f600083018461471b565b92915050565b60008060006060848603121561475e5761475d6140be565b5b600061476c868287016146b2565b935050602061477d868287016146b2565b925050604061478e868287016140e9565b9150509250925092565b6000602082840312156147ae576147ad6140be565b5b60006147bc848285016146b2565b91505092915050565b600080fd5b600080fd5b7f4e487b7100000000000000000000000000000000000000000000000000000000600052604160045260246000fd5b614807826141c1565b810181811067ffffffffffffffff82111715614826576148256147cf565b5b80604052505050565b60006148396140b4565b905061484582826147fe565b919050565b600067ffffffffffffffff821115614865576148646147cf565b5b61486e826141c1565b9050602081019050919050565b82818337600083830152505050565b600061489d6148988461484a565b61482f565b9050828152602081018484840111156148b9576148b86147ca565b5b6148c484828561487b565b509392505050565b600082601f8301126148e1576148e06147c5565b5b81356148f184826020860161488a565b91505092915050565b600080600060608486031215614913576149126140be565b5b600084013567ffffffffffffffff811115614931576149306140c3565b5b61493d868287016148cc565b935050602084013567ffffffffffffffff81111561495e5761495d6140c3565b5b61496a868287016148cc565b925050604084013567ffffffffffffffff81111561498b5761498a6140c3565b5b614997868287016148cc565b9150509250925092565b60006020820190506149b6600083018461412b565b92915050565b6000610120830160008301516149d560008601826143e3565b5060208301516149e860208601826143f2565b5060408301516149fb60408601826143f2565b506060830151614a0e60608601826143e3565b5060808301518482036080860152614a268282614461565b91505060a0830151614a3b60a08601826143e3565b5060c083015184820360c0860152614a5382826144d0565b91505060e083015184820360e0860152614a6d82826144d0565b915050610100830151848203610100860152614a8982826144d0565b9150508091505092915050565b60006020820190508181036000830152614ab081846149bc565b905092915050565b614ac181614707565b8114614acc57600080fd5b50565b600081359050614ade81614ab8565b92915050565b60008060408385031215614afb57614afa6140be565b5b6000614b09858286016140e9565b9250506020614b1a85828601614acf565b9150509250929050565b614b2d81614323565b8114614b3857600080fd5b50565b600081359050614b4a81614b24565b92915050565b60008060408385031215614b6757614b666140be565b5b6000614b75858286016146b2565b9250506020614b8685828601614b3b565b9150509250929050565b600067ffffffffffffffff821115614bab57614baa6147cf565b5b614bb4826141c1565b9050602081019050919050565b6000614bd4614bcf84614b90565b61482f565b905082815260208101848484011115614bf057614bef6147ca565b5b614bfb84828561487b565b509392505050565b600082601f830112614c1857614c176147c5565b5b8135614c28848260208601614bc1565b91505092915050565b60008060008060808587031215614c4b57614c4a6140be565b5b6000614c59878288016146b2565b9450506020614c6a878288016146b2565b9350506040614c7b878288016140e9565b925050606085013567ffffffffffffffff811115614c9c57614c9b6140c3565b5b614ca887828801614c03565b91505092959194509250565b60008060408385031215614ccb57614cca6140be565b5b6000614cd9858286016146b2565b9250506020614cea858286016146b2565b9150509250929050565b7f4e487b7100000000000000000000000000000000000000000000000000000000600052602260045260246000fd5b60006002820490506001821680614d3b57607f821691505b602082108103614d4e57614d4d614cf4565b5b50919050565b7f4e487b7100000000000000000000000000000000000000000000000000000000600052603260045260246000fd5b7f4e487b7100000000000000000000000000000000000000000000000000000000600052601160045260246000fd5b6000614dbd826140c8565b91507fffffffffffffffffffffffffffffffffffffffffffffffffffffffffffffffff8203614def57614dee614d83565b5b600182019050919050565b7f4552433732313a20617070726f76616c20746f2063757272656e74206f776e6560008201527f7200000000000000000000000000000000000000000000000000000000000000602082015250565b6000614e56602183614186565b9150614e6182614dfa565b604082019050919050565b60006020820190508181036000830152614e8581614e49565b9050919050565b7f4552433732313a20617070726f76652063616c6c6572206973206e6f7420746f60008201527f6b656e206f776e6572206f7220617070726f76656420666f7220616c6c000000602082015250565b6000614ee8603d83614186565b9150614ef382614e8c565b604082019050919050565b60006020820190508181036000830152614f1781614edb565b9050919050565b6000819050919050565b6000819050919050565b6000614f4d614f48614f4384614f1e565b614f28565b614707565b9050919050565b614f5d81614f32565b82525050565b6000602082019050614f786000830184614f54565b92915050565b7f4552433732313a2063616c6c6572206973206e6f7420746f6b656e206f776e6560008201527f72206f7220617070726f76656400000000000000000000000000000000000000602082015250565b6000614fda602d83614186565b9150614fe582614f7e565b604082019050919050565b6000602082019050818103600083015261500981614fcd565b9050919050565b60008154905061501f81614d23565b9050919050565b60008190508160005260206000209050919050565b60006020601f8301049050919050565b600082821b905092915050565b6000600883026150887fffffffffffffffffffffffffffffffffffffffffffffffffffffffffffffffff8261504b565b615092868361504b565b95508019841693508086168417925050509392505050565b60006150c56150c06150bb846140c8565b614f28565b6140c8565b9050919050565b6000819050919050565b6150df836150aa565b6150f36150eb826150cc565b848454615058565b825550505050565b600090565b6151086150fb565b6151138184846150d6565b505050565b5b818110156151375761512c600082615100565b600181019050615119565b5050565b601f82111561517c5761514d81615026565b6151568461503b565b81016020851015615165578190505b6151796151718561503b565b830182615118565b50505b505050565b600082821c905092915050565b600061519f60001984600802615181565b1980831691505092915050565b60006151b8838361518e565b9150826002028217905092915050565b8181036151d65750506152ae565b6151df82615010565b67ffffffffffffffff8111156151f8576151f76147cf565b5b6152028254614d23565b61520d82828561513b565b6000601f83116001811461523c576000841561522a578287015490505b61523485826151ac565b8655506152a7565b601f19841661524a87615026565b965061525586615026565b60005b8281101561527d57848901548255600182019150600185019450602081019050615258565b8683101561529a5784890154615296601f89168261518e565b8355505b6001600288020188555050505b5050505050505b565b7f4552433732313a20696e76616c696420746f6b656e2049440000000000000000600082015250565b60006152e6601883614186565b91506152f1826152b0565b602082019050919050565b60006020820190508181036000830152615315816152d9565b9050919050565b7f4552433732313a2061646472657373207a65726f206973206e6f74206120766160008201527f6c6964206f776e65720000000000000000000000000000000000000000000000602082015250565b6000615378602983614186565b91506153838261531c565b604082019050919050565b600060208201905081810360008301526153a78161536b565b9050919050565b60006153b9826140c8565b91506153c4836140c8565b92508282039050818111156153dc576153db614d83565b5b92915050565b60006153ed82614707565b91506153f883614707565b9250828201905067ffffffffffffffff81111561541857615417614d83565b5b92915050565b7f537562736372697074696f6e204e6f742052656e657761626c65000000000000600082015250565b6000615454601a83614186565b915061545f8261541e565b602082019050919050565b6000602082019050818103600083015261548381615447565b9050919050565b7f4f6e6c79204e4654206f776e65722063616e20706572666f726d207468697300600082015250565b60006154c0601f83614186565b91506154cb8261548a565b602082019050919050565b600060208201905081810360008301526154ef816154b3565b9050919050565b7f4e487b7100000000000000000000000000000000000000000000000000000000600052601260045260246000fd5b6000615530826140c8565b915061553b836140c8565b92508261554b5761554a6154f6565b5b828204905092915050565b600081905092915050565b600061556c8261417b565b6155768185615556565b9350615586818560208601614197565b80840191505092915050565b600061559e8285615561565b91506155aa8284615561565b91508190509392505050565b60006155c1826140c8565b91506155cc836140c8565b92508282019050808211156155e4576155e3614d83565b5b92915050565b7f4552433732313a207472616e736665722066726f6d20696e636f72726563742060008201527f6f776e6572000000000000000000000000000000000000000000000000000000602082015250565b6000615646602583614186565b9150615651826155ea565b604082019050919050565b6000602082019050818103600083015261567581615639565b9050919050565b7f4552433732313a207472616e7366657220746f20746865207a65726f2061646460008201527f7265737300000000000000000000000000000000000000000000000000000000602082015250565b60006156d8602483614186565b91506156e38261567c565b604082019050919050565b60006020820190508181036000830152615707816156cb565b9050919050565b7f4552433732313a206d696e7420746f20746865207a65726f2061646472657373600082015250565b6000615744602083614186565b915061574f8261570e565b602082019050919050565b6000602082019050818103600083015261577381615737565b9050919050565b7f4552433732313a20746f6b656e20616c7265616479206d696e74656400000000600082015250565b60006157b0601c83614186565b91506157bb8261577a565b602082019050919050565b600060208201905081810360008301526157df816157a3565b9050919050565b7f45524337323155524953746f726167653a2055524920736574206f66206e6f6e60008201527f6578697374656e7420746f6b656e000000000000000000000000000000000000602082015250565b6000615842602e83614186565b915061584d826157e6565b604082019050919050565b6000602082019050818103600083015261587181615835565b9050919050565b6158818261417b565b67ffffffffffffffff81111561589a576158996147cf565b5b6158a48254614d23565b6158af82828561513b565b600060209050601f8311600181146158e257600084156158d0578287015190505b6158da85826151ac565b865550615942565b601f1984166158f086615026565b60005b82811015615918578489015182556001820191506020850194506020810190506158f3565b868310156159355784890151615931601f89168261518e565b8355505b6001600288020188555050505b505050505050565b600061596561596061595b84614f1e565b614f28565b6140c8565b9050919050565b6159758161594a565b82525050565b600081549050919050565b600082825260208201905092915050565b60008190508160005260206000209050919050565b60008160001c9050919050565b600073ffffffffffffffffffffffffffffffffffffffff82169050919050565b60006159ec6159e7836159ac565b6159b9565b9050919050565b60006159ff82546159d9565b9050919050565b6000600182019050919050565b6000615a1e8261597b565b615a288185615986565b9350615a3383615997565b8060005b83811015615a6b57615a48826159f3565b615a52888261443c565b9750615a5d83615a06565b925050600181019050615a37565b5085935050505092915050565b600060e082019050615a8d600083018a61416c565b615a9a602083018961416c565b615aa7604083018861596c565b8181036060830152615ab98187615a13565b9050615ac8608083018661412b565b81810360a0830152615ada81856141d2565b905081810360c0830152615aee81846141d2565b905098975050505050505050565b7f4552433732313a20617070726f766520746f2063616c6c657200000000000000600082015250565b6000615b32601983614186565b9150615b3d82615afc565b602082019050919050565b60006020820190508181036000830152615b6181615b25565b9050919050565b7f4552433732313a207472616e7366657220746f206e6f6e20455243373231526560008201527f63656976657220696d706c656d656e7465720000000000000000000000000000602082015250565b6000615bc4603283614186565b9150615bcf82615b68565b604082019050919050565b60006020820190508181036000830152615bf381615bb7565b9050919050565b600081519050919050565b600082825260208201905092915050565b6000615c2182615bfa565b615c2b8185615c05565b9350615c3b818560208601614197565b615c44816141c1565b840191505092915050565b6000608082019050615c64600083018761438d565b615c71602083018661438d565b615c7e604083018561412b565b8181036060830152615c908184615c16565b905095945050505050565b600081519050615caa816142ca565b92915050565b600060208284031215615cc657615cc56140be565b5b6000615cd484828501615c9b565b9150509291505056fea2646970667358221220dcb81df5f46893327cd4caf5090d2fe95c57ceecd2125208e4ac1b3c4a4243db64736f6c63430008120033",
  "linkReferences": {},
  "deployedLinkReferences": {}
}